:020000040800F2
:1000000020070020B5010008751300086D130008D3
:100010007113000871020008C918000800000000F0
:100020000000000000000000000000009D14000817
:10003000750200080000000079130008A1140008F0
:10004000CF010008CF010008CF010008CF01000850
:10005000CF010008CF010008CF010008CF01000840
:10006000CF010008CF010008CF010008CF01000830
:10007000CF010008CF010008CF010008CF01000820
:10008000CF010008CF010008CF010008CF01000810
:10009000CF010008CF010008CF010008CF01000800
:1000A000CF010008CF010008CF010008CF010008F0
:1000B000CF010008CF010008CF010008CF010008E0
:1000C000CF010008CF010008CF010008CF010008D0
:1000D000CF010008CF010008CF010008CF010008C0
:1000E000CF010008CF010008CF01000800F002F89E
:1000F00000F050F814A696E8000CB244B344DA4578
:1001000001D100F047F8BAE80F000FA696E83000DA
:10011000A5EB040504EB0607AAEB0704A7F101070A
:100120004FEA15154FEA3414A4F10104AC4201D38F
:1001300000F030F813F0010F18BFFB1A43F0010371
:1001400000F001F8DBE718477C2600009C26000041
:10015000103A24BF78C878C1FAD8520724BF30C8F3
:1001600030C144BF04680C60704700007047000055
:100170000023002400250026103A28BF78C1FBD8B0
:10018000520728BF30C148BF0B6070471FB51FBD65
:1001900010B510BD00F031F81146FFF7F7FF01F080
:1001A00023FE00F04FF803B4FFF7F2FF03BC00F0AA
:1001B00057F800000948804709480047FEE7FEE776
:1001C000FEE7FEE7FEE7FEE7FEE7FEE7FEE7FEE707
:1001D00004480549054A064B70470000A51400086D
:1001E000ED0000082001002020070020200300204F
:1001F00020030020704770477047754600F02CF8C8
:10020000AE4605006946534620F00700854618B003
:1002100020B5FFF7DDFFBDE820404FF000064FF0AE
:1002200000074FF000084FF0000BAC46ACE8C009E7
:10023000ACE8C009ACE8C009ACE8C00921F007018E
:100240008D46704710B50446AFF300802046BDE8E8
:100250001040FFF7A8BF00000048704710000020C2
:1002600001491820ABBEFEE72600020070470000DF
:10027000FEE7000070470000B0B5044600F024F926
:10028000054640F20000C2F200000078611C18BF71
:10029000044400BF00F018F9401BA042FAD3B0BDDF
:1002A0002DE9F04F82B00E68002E00F0FD8041F283
:1002B0000042C4F20102042340F2004E904208BF03
:1002C00003234FF6FF7CC4F2010E009300240123A8
:1002D000C1F2100C4FF0000A4FF000094BE000BFD4
:1002E00041F20002C4F20102009F904208BF0227BF
:1002F00004F00C030F229A402BEA020207FA03F3E0
:100300004FEA9A051A4346F825204E6840F20C45FC
:10031000F202DEF8082054BF22EA080242EA08028C
:10032000C4F20105CEF808202A68B30254BF22EABD
:10033000080242EA08022A60B303DEF8042054BF30
:1003400022EA080242EA0802F303CEF80420DEF8AB
:1003500000204FF0010354BF22EA080242EA0802DB
:10036000CEF800200E680AF1010A36FA0AF204F10A
:10037000040400F0998003FA0AFB16EA0B08F1D096
:100380004E68664512DC122E56D8DFE806F0350BB3
:100390004D49555555555555555555555555554531
:1003A000510000BFD1F80C9046E000BF4FF6FF723D
:1003B000C1F2210296420FDC0022C1F211029642E4
:1003C0001AD00022C1F21202964215D00022C1F2C8
:1003D0002102964210D02FE00022C1F22202964262
:1003E0000AD00022C1F23102964205D00022C1F2A9
:1003F0003202964220D100BF8A684AB1012A14BF56
:10040000C0F814B0C0F810B04FF0080914E000BFF5
:100410004FF0040910E000BFCA6802F104090BE0C4
:100420004FF0000908E000BFCA6802F1080903E0C4
:10043000CA6802F10C0900BF02462646B8F5807F63
:1004400024BF0432203E17680F25B54027EA050572
:1004500009FA06F635431560CA79D2067FF582AFF0
:1004600041F21803C4F202031A68AEF57E7642F038
:1004700001021A601A6802F001020192019A2AF040
:10048000030256F802B040F60002C4F201029042A4
:1004900008D040F60042C4F2010290427FF420AF3F
:1004A000012725E7002723E702B0BDE8F08F000011
:1004B0008068084018BF012070470000002A08BF6C
:1004C000090401617047000040F21810C2F20000F8
:1004D0000068704740F2000040F21811C2F20000BC
:1004E000C2F2000100780A681044086070470000FA
:1004F00080B542F20000C4F20200016841F0100130
:100500000160032000F07AF80F2000F005F800F0F9
:1005100027F8002080BD000070B540F20006C2F24E
:10052000000640F20C013278C2F200014FF47A73F7
:100530000968B3FBF2F20446B1FBF2F1084600F0A1
:10054000DBFC0F2C4FF0010508D838B94FF0FF3015
:1005500021460022002500F025F87460284670BD71
:1005600082B041F21800C4F202000168022241F098
:1005700001010160016801F00101019101994168E7
:1005800041F080514160406800F080500090009838
:100590000420C4F20100016862F31A61016002B034
:1005A0007047000010B54EF60C5CCEF2000CDCF883
:1005B0000030C3F3022E8EF00704042C28BF04245D
:1005C000BEF103034FF0FF3E0EFA04F438BF0023E0
:1005D000A14399400EFA03F39A43114300F00F022E
:1005E00000F160430901043A03F5644362440028C2
:1005F00048BF02F10C03197010BD00004EF60C51FB
:10060000CEF200010A684FF6FF031A4060F30A2297
:1006100042F0806040F0FD7008607047002804BF21
:10062000012070472DE9F04381B042F20008C4F286
:1006300002080446D8F800000D4600F00700814289
:100640000CD9D8F8000020F007002843C8F80000B3
:10065000D8F8000000F00700A8426CD1206841F2F1
:1006600004098107C4F2020917D5410705D5D9F855
:10067000001041F4E061C9F80010010705D5D9F870
:10068000001041F46051C9F80010D9F80010A268B8
:1006900021F0F0011143C9F80010C00742D1D8F889
:1006A000000000F0070085420CD2D8F8000020F0CE
:1006B00007002843C8F80000D8F8000000F0070041
:1006C000A84238D12068410707D5D9F80010E26860
:1006D00021F4E0611143C9F80010000708D5D9F8EA
:1006E0000000216920F4605040EAC100C9F8000010
:1006F000D9F8002002F00C00082841F20020C0F2D6
:100700007A004DD142F26073C2F38341C0F6000318
:10071000595CD20338D440F60010C0F23D00484383
:100720003EE000BF606859F8041C022808D0012888
:1007300026D1890306D4012001B0BDE8F08300BFB3
:100740008901F8D5D9F8001021F003010843C9F850
:100750000000FFF7B9FE064641F28837D9F80000DD
:10076000616800F00C00B0EB810F98D0FFF7ACFE91
:10077000801BB842F2D9032001B0BDE8F08300BF6E
:100780008907D8D5DEE700BFD9F8002042F25E73B2
:10079000C2F34042C0F600039A5C4843B0FBF2F05B
:1007A000D9F8001042F24E72C1F30311C0F60002F4
:1007B000515C40F20C0220FA01F140F20400C2F256
:1007C00000000068C2F200021160FFF7A5FE0020E1
:1007D00001B0BDE8F0830000002804BF012070478D
:1007E0002DE9F04182B00446007841F20006C007CE
:1007F000C4F202060CD0706800F00C00042840F02F
:1008000081803068800303D56068002800F046814D
:10081000207880071BD5706810F00C0F09D0706825
:1008200000F00C00082840F087807068C00300F1D9
:1008300083803068800703D52069012840F02E812D
:100840003068616920F0F80040EAC100306020782B
:10085000000713D4207840072CD4E569002D00F060
:100860001881706800F00C00082840F0A780012D66
:1008700040F00481012002B0BDE8F081A0690028A9
:1008800000F084800020C4F242200121C0F88014CE
:10089000FFF71AFE054600BF706A800700F1B280BC
:1008A000FFF712FE401B0228F6D9032002B0BDE874
:1008B000F08100BFF0695FEAC00808D4F06940F039
:1008C0008050F061F06900F080500090009847F28D
:1008D0000007C4F200073868C00549D4386840F4FE
:1008E00080703860FFF7F0FD054600BF3868C0052E
:1008F0003ED4FFF7E9FD401B6428F7D9032002B07E
:10090000BDE8F081706800F00C00082803D1706821
:10091000C0033FF576AF61683068002900F00C81B4
:10092000B1F5A02F00F00081B1F5803F40F01A81B1
:1009300040F480301CE100BF2069002840F2000034
:10094000C4F2422000F0888001210160FFF7BCFD65
:10095000054600BF306880073FF572AFFFF7B4FD72
:10096000401B0228F6D9032002B0BDE8F08100BF89
:10097000E168306A002900F09D80052900F092802E
:10098000012940F0AF8040F00100B1E00020C4F246
:1009900042200021C0F88014FFF796FD054600BFF5
:1009A000706A80077FF556AFFFF78EFD401B022867
:1009B000F6D9032002B0BDE8F08100BF0027C4F2E1
:1009C000422700203866FFF77FFD022D05460DD136
:1009D0003068800140F1DE80FFF776FD401B022881
:1009E0004FF00300F4D902B0BDE8F0813068800117
:1009F0004FD5FFF769FD401B02284FF00300F5D9E2
:100A0000F1E700BF40F20C00C2F20000006844F6BB
:100A1000D351C1F26201A0FB0101480A019000BF5D
:100A200000BF0198411E002801913FF413AF00BFA1
:100A30000198411E002801913FF40CAF00BF0198BE
:100A4000411E002801913FF405AF00BF0198411EEF
:100A500000280191E4D1FDE600210160FFF734FD9B
:100A6000054600BF306880077FF5F1AEFFF72CFD2B
:100A7000401B02284FF00300F4D9B4E77068216AE4
:100A800000F480328A4209D1616A00F47010884211
:100A900004D1002002B0BDE8F08100BF012002B007
:100AA000BDE8F08140F004003062306A40F001009F
:100AB0001EE000BF20F001003062306A20F0040028
:100AC0003062FFF701FD054641F28837306A800742
:100AD00020D5FFF7F9FC401BB8424FF00300F5D9D1
:100AE00081E700BF20F001003062306A20F004008E
:100AF0003062FFF7E9FC054641F28837306A80072B
:100B000008D4FFF7E1FC401BB842F7D9032002B03C
:100B1000BDE8F081B8F1000F3FF59FAEF06920F01D
:100B20008050F06199E600BF40F48020306030686A
:100B300040F480301CE000BF20F48030306030682A
:100B400020F480203060FFF7BFFC0546306880034A
:100B50007FF55EAEFFF7B8FC401B64284FF0030042
:100B6000F4D940E720F480303060306820F48020F1
:100B70003060FFF7A9FC0546306880033FF548AEBA
:100B8000FFF7A2FC401B6428F6D9032002B0BDE8A1
:100B9000F08100BF206AB0F5803F05D17168A2687E
:100BA00021F40031114371607168626A21F474119B
:100BB00011430843706001203866FFF785FC044646
:100BC000306880013FF565AFFFF77EFC001B02280F
:100BD0004FF00300F4D906E770B528B1416A29B196
:100BE00000210161142106E0012070BD4168B1F5CA
:100BF000827F02D01C21002242500026866290F89B
:100C0000511029B980F85060054600F039F828469F
:100C1000022180F8511090E82E0002F482720C68D4
:100C200003F4044324F040040C601A4405F4006308
:100C300005691A4405F0020345691A4405F00103E9
:100C40008569C4691A4405F400731A4404F0380332
:100C5000046A1A4404F08003846A1A4304F40053BB
:100C60001A430A60042202EA15424A60CA6922F461
:100C70000062CA610121466580F85110304670BD9E
:100C800070B586B040F60004C4F20104006804F5B3
:100C90002051002688420596CDE90366029601D0D0
:100CA00006B070BD41F21800C4F20200016802AD46
:100CB00041F480510160016801F480510191019972
:100CC000016841F0040101600068294600F0040059
:100CD00001900198A020029002200390032005902B
:100CE0002046FFF7DDFA4020CDE9020620462946DE
:100CF0000496FFF7D5FA06B070BD00002DE9F0416B
:100D000082B01D4616460F460446FFF7DDFB94F8F9
:100D1000511001290ED18046002F4FF0010018BF5D
:100D2000002E03D102B0BDE8F08100BF94F850005E
:100D3000012803D1022002B0BDE8F081012084F82F
:100D400050000320002184F8510061652763A686C6
:100D5000E686A163A187E187A0682164B0F5004F12
:100D60002068616407D1016821F0400101600168D9
:100D700041F4804101600168490603D4016841F0F3
:100D8000400101606168731EE268B1FA81F1B3FA53
:100D900083F349095B09B2F5006F41EA030139D1D8
:100DA00031B137F8021BC1602763E08E0138E0865D
:100DB000E08E002870D0681C0BD11AE0216B31F84E
:100DC000022BC2602163E08E0138E086E08E0028AD
:100DD00062D0206881688907F0D4FFF775FBA0EB2B
:100DE0000800A842F2D338E0FFF76EFBE08E00283F
:100DF00052D0206881688907F6D5216B31F8022B23
:100E0000C2602163E08E0138E086E08E0028F0D1D8
:100E100042E000BF39B139780173206B01302063A3
:100E2000E08E0138E086E08EB0B3681C0BD123E081
:100E3000216B09780173206B01302063E08E01384B
:100E4000E086E08E40B3206881688907F0D4FFF720
:100E50003BFBA0EB0800A842F3D3012084F851002B
:100E6000002084F85000032002B0BDE8F08100BFEC
:100E7000FFF72AFBE08E78B1206881688907F7D5F3
:100E8000216B09780173206B01302063E08E0138FB
:100E9000E086E08E0028EFD12046022101222B4679
:100EA000CDF8008000F06AFA40B920468021002287
:100EB0002B46CDF8008000F061FA28B1606D40F05B
:100EC0002000606520206065A06838B9002001908E
:100ED0002068C1680191806801900198012084F820
:100EE0005100002084F85000606D002818BF0120D8
:100EF00002B0BDE8F0810000411E0020B0EB116F90
:100F00001CBF012070474EF21002CEF20002516069
:100F10004EF62351CEF20001F0230B7007219060B2
:100F20001160704790F83C20012A4FF0020236D041
:100F300010B580F83D200268D2F804E0D2F808C06D
:100F40000C682EF07003234340F2FF74C4F20004D7
:100F5000A24253600ADCB2F1804F13D040F200434A
:100F6000C4F200039A420DD011E000BF42F60043E4
:100F7000C4F201039A4205D040F60003C4F2000314
:100F80009A4204D149682CF08003194391600121F1
:100F9000002280F83D1080F83C20BDE8104010464B
:100FA00070470000002804BF0120704710B590F87A
:100FB0003D1031B9002180F83C10044600F070F873
:100FC0002046022180F83D10016840F2FF740B6852
:100FD000C4F2000442F6004CA142C4F2010C15DC3C
:100FE000B1F1804F1AD040F20042C4F200029142A7
:100FF00014D0A14218DCB1F1804F1DD040F2004264
:10100000C4F20002914217D01AE000BF614505D03A
:1010100040F60002C4F200029142EAD1826823F055
:1010200070031343A142E6DD614505D040F600029E
:10103000C4F20002914203D1026923F440731343C6
:10104000846923F08002D0F804E0C368224361453C
:101050000A60CB62C1F828E002D14269CCF83020A6
:1010600001224A610B69DB0703D00B6923F00103FE
:101070000B6180F8462080F83E2080F83F2080F801
:10108000402080F8412080F8422080F8432080F8FA
:10109000442080F8452080F83D20002010BD00004D
:1010A0000068B0F1804F18BF704781B041F21C005A
:1010B000C4F20200016841F001010160006800F023
:1010C00001000090009801B07047000090F83D10BA
:1010D00001291CBF01207047022180F83D100068E3
:1010E00040F2FF71C4F20001884209DCB0F1804F88
:1010F00012D040F20041C4F2000188420CD012E04C
:1011000042F60041C4F20101884205D040F60001D8
:10111000C4F20001884206D1816801F00701062966
:1011200004BF00207047016841F001010160002008
:101130007047000090F83C20012A4FF002026CD06A
:1011400080B580F83D20D0F800C04FF67772DCF80B
:10115000083023EA0202CCF808200B684F2B29DC68
:101160001F2B45DD202B46D0302B44D0402B40F0A8
:10117000AF80D1F804E0C968DCF82030DCF820202A
:1011800022F00102CCF82020DCF8182022F0F00236
:1011900042EA011123F00A0242EA0E02CCF81810CA
:1011A000CCF82020DCF8081041F0470121F0300194
:1011B00028E000BF6F2B33DDB3F5005F74D0B3F5CB
:1011C000805F21D0702B40F08380D1E901E3C968B2
:1011D000DCF8082043EA0E0322F47F4243EA0121AF
:1011E0001143CCF80810DCF8081041F0770109E051
:1011F0000BB1102B6CD1DCF8081021F070011943F1
:1012000041F00701CCF808100022012180F83D10C0
:10121000002180F83C10BDE880401046704700BFB8
:10122000502B21D0602B53D1D1F804E0C968DCF8F1
:101230002030DCF8202022F01002CCF82020DCF84E
:10124000182022F4704242EA013123F0A00242EA5F
:101250000E12CCF81810CCF82020DCF8081041F061
:10126000670121F01001CDE7D1F804E0C968DCF88E
:101270002030DCF8202022F00102CCF82020DCF81D
:10128000182022F0F00242EA011123F00A0242EA99
:101290000E02CCF81810CCF82020DCF8081041F031
:1012A000570121F02001ADE7D1E901E3C968DCF87D
:1012B000082043EA0E0322F47F4243EA012111434E
:1012C000CCF80810DCF8081041F480419AE700BF20
:1012D00001229AE7B0B540F60044C4F2010420466A
:1012E0004FF400710122FFF7E9F80120FEF7C4FF77
:1012F00020464FF400710022FFF7E0F820464FF43B
:101300008071FFF7D5F80028F8D040F27805C2F2D6
:10131000000528680021416220464FF48071FFF7E4
:10132000C7F80128F8D02868406A80B200F08BFF27
:101330004CF29C4246F67203CBF22002C3F6A17334
:1013400000F094FF0023C3F6E073002200F08EFF4C
:1013500000F04AFF0A2828BF0A2001F09FF9B0BD1B
:1013600040F27800C2F20000FFF7B0BEFEE70000D6
:10137000FEE70000FEE70000704700002DE9F043A3
:1013800081B0089C984615460E468146FFF79CF8AA
:10139000201A00EB0804FFF797F840F20C01C2F2A4
:1013A00000010968C1F3CB3161430091D9F8001005
:1013B0008A683240921BB2FA82F2520995423DD0BD
:1013C000074618F1010031D0FFF77EF8C01BA0429C
:1013D00038D2009800990028A1F101010091D9F8B4
:1013E0000010896808BF044601EA0600801BB0FAB5
:1013F00080F040098542E7D120E000BF8868304096
:10140000801BB0FA80F04009854217D088683040D0
:10141000801BB0FA80F0400985420FD088683040C8
:10142000801BB0FA80F04009854207D088683040C0
:10143000801BB0FA80F040098542DFD1002001B066
:10144000BDE8F083D9E900014268B1F5827F22F05E
:10145000E00242600BD1D9F80810B1F5004F02D07C
:10146000B1F5806F03D1016821F040010160D9F826
:101470002810B1F5005F07D1016821F40051016027
:10148000016841F400510160012089F851000020F9
:1014900089F85000032001B0BDE8F08370470000D8
:1014A000FFF718B870470000B0B582B040F60044AE
:1014B000C4F2010420464FF480610022FEF7FEFFD3
:1014C0001420FEF7D9FE20464FF480610122012549
:1014D000FEF7F4FFC820FEF7CFFE204601210022D0
:1014E0008DF80050FEF7EAFF204602210022FEF7A9
:1014F000E5FF40F2C005C2F2000569462846012218
:101500004FF47A73FFF7FAFB204601210122FEF720
:10151000D5FFC820FEF7B0FE11208DF8010020464F
:1015200001210022FEF7CAFF204602210022FEF719
:10153000C5FF0DF10101284601224FF47A73FFF730
:10154000DDFB204601210122FEF7B8FFC820FEF78F
:1015500093FE42F27070C0F6000000F047FD3620A6
:101560008DF80200204601210022FEF7A7FF204649
:1015700002210022FEF7A2FF0DF1020128460122FE
:101580004FF47A73FFF7BAFB204601210122FEF7E0
:1015900095FF08208DF80300204601210022FEF768
:1015A0008DFF204602210122FEF788FF0DF1030185
:1015B000284601224FF47A73FFF7A0FB2046012151
:1015C0000122FEF77BFF3A208DF80400204601211E
:1015D0000022FEF773FF204602210022FEF76EFF75
:1015E00001A9284601224FF47A73FFF787FB2046B2
:1015F00001210122FEF762FF05208DF8050020463B
:1016000001210022FEF75AFF204602210122FEF7A7
:1016100055FF0DF10501284601224FF47A73FFF7BB
:101620006DFB204601210122FEF748FF20208DF8A6
:101630000600204601210022FEF740FF204602213D
:101640000022FEF73BFF0DF10601284601224FF470
:101650007A73FFF753FB204601210122FEF72EFF8C
:10166000002000218022A02300F020F829208DF8FE
:101670000700204601210022FEF720FF204602211C
:101680000022FEF71BFF0DF10701284601224FF44F
:101690007A73FFF733FB204601210122FEF70EFF8C
:1016A0006420FEF7E9FD02B0B0BD00002DE9F0476F
:1016B00084B040F6004407462A20C4F201041546CF
:1016C00089468DF8060020460121002298464FF0F9
:1016D000000AFEF7F3FE204602210022FEF7EEFE8E
:1016E00040F2C006C2F200060DF1060130460122AA
:1016F0004FF47A73FFF702FB204601210122FEF727
:10170000DDFE2046012100228DF807A0FEF7D6FE5F
:10171000204602210122FEF7D1FE0DF107013046DD
:1017200001224FF47A73FFF7E9FA204601210122E2
:10173000FEF7C4FE2046012100228DF80870FEF756
:10174000BDFE204602210122FEF7B8FE02A9304666
:1017500001224FF47A73FFF7D1FA204601210122CA
:10176000FEF7ACFE2046012100228DF809A0FEF70D
:10177000A5FE204602210122FEF7A0FE0DF109017F
:10178000304601224FF47A73FFF7B8FA2046012160
:101790000122FEF793FE2046012100228DF80A5017
:1017A000FEF78CFE204602210122FEF787FE0DF196
:1017B0000A01304601224FF47A73FFF79FFA204660
:1017C00001210122FEF77AFE2B208DF80B00204626
:1017D00001210022FEF772FE204602210022FEF7C0
:1017E0006DFE0DF10B01304601224FF47A73FFF7C5
:1017F00085FA204601210122FEF760FE20460121E4
:1018000000228DF80CA0FEF759FE2046022101228D
:10181000FEF754FE03A9304601224FF47A73FFF716
:101820006DFA204601210122FEF748FE20460121E3
:1018300000228DF80D90FEF741FE20460221012284
:10184000FEF73CFE0DF10D01304601224FF47A7394
:10185000FFF754FA204601210122FEF72FFE204611
:10186000012100228DF80EA0FEF728FE204602215D
:101870000122FEF723FE0DF10E01304601224FF446
:101880007A73FFF73BFA204601210122FEF716FE8C
:101890002046012100228DF80F80FEF70FFE204622
:1018A00002210122FEF70AFE0DF10F01304601224E
:1018B0004FF47A73FFF722FA204601210122FEF746
:1018C000FDFD04B0BDE8F087FEE700009F2908BFDA
:1018D00070472DE9F04F81B08246002800F0CF819B
:1018E000BAF17F0F00F0CB818946002900F0C78153
:1018F00040F20808C2F2000898F8000098F80110B9
:10190000821E023900273F2888BF4FF6FF77D0B2EA
:10191000C9B23A4600F002FA98F8000098F80110AF
:1019200002380139C0B2C9B23A4600F0F7F998F866
:10193000000098F801100238C0B23A4600F0EEF903
:1019400098F8000098F8011002380131C0B2C9B20D
:101950003A4600F0E3F998F8000098F801100238D0
:101960000231C0B2C9B23A4600F0D8F998F8000086
:1019700098F8011001380239C0B2C9B23A4600F0F5
:10198000CDF998F8000098F8011001380139C0B27B
:10199000C9B23A4600F0C2F998F8000098F8011070
:1019A0000138C0B23A4600F0B9F998F8000098F84A
:1019B000011001380131C0B2C9B23A4600F0AEF9A7
:1019C00098F8000098F8011001380231C0B2C9B28D
:1019D0003A4600F0A3F998F8011098F8000002398F
:1019E000C9B23A4600F09AF998F8011098F8000048
:1019F0000139C9B23A4600F091F998F8000098F818
:101A000001103A4600F08AF998F8011098F80000A1
:101A10000131C9B23A4600F081F998F8011098F8FE
:101A200000000231C9B23A4600F078F998F8000097
:101A300098F8011001300239C0B2C9B23A4600F03C
:101A40006DF998F8000098F8011001300139C0B222
:101A5000C9B23A4600F062F998F8000098F801100F
:101A60000130C0B23A4600F059F998F8000098F8F1
:101A7000011001300131C0B2C9B23A4600F04EF94E
:101A800098F8000098F8011001300231C0B2C9B2D4
:101A90003A4600F043F998F8000098F80110023037
:101AA0000239C0B2C9B23A4600F038F998F80000DD
:101AB00098F8011002300139C0B2C9B23A4600F0BC
:101AC0002DF998F8000098F801100230C0B23A469B
:101AD00000F024F998F8000098F801100230013164
:101AE000C0B2C9B23A4600F019F998F8000098F867
:101AF000011002300231C0B2C9B23A4600F00EF90C
:101B0000A9F10200AAF10201CFB25FFA80FB3846C8
:101B100059464FF4784200F001F9A9F10100C6B22C
:101B2000384631464FF4784200F0F8F838464946D6
:101B30004FF4784200F0F2F809F10100C4B23846DF
:101B400021464FF4784200F0E9F809F10200C5B2ED
:101B5000384629464FF4784200F0E0F8AAF1010037
:101B6000C7B2384659464FF4784200F0D7F83846A5
:101B700031464FF4784200F0D1F8384649464FF4E8
:101B8000784200F0CBF8384621464FF4784200F016
:101B9000C5F8384629464FF4784200F0BFF8504661
:101BA00059464FF4784200F0B9F8504631464FF4A8
:101BB000784200F0B3F8504649464FF4784200F0BE
:101BC000ADF8504621464FF4784200F0A7F8504651
:101BD00029464FF4784200F0A1F80AF10100C7B29B
:101BE000384659464FF4784200F098F83846314666
:101BF0004FF4784200F092F8384649464FF4784264
:101C000000F08CF8384621464FF4784200F086F810
:101C1000384629464FF4784200F080F80AF1020075
:101C2000C7B2384659464FF4784200F077F8384644
:101C300031464FF4784200F071F8384649464FF487
:101C4000784200F06BF8384621464FF4784200F0B5
:101C500065F8384629464FF4784200F05FF840F6C0
:101C600000000022C4F201000221BAF1410F38BF86
:101C70000122FEF723FC88F800A088F8019001B04B
:101C8000BDE8F04F70470000F0B581B0002500BFFF
:101C9000ECB2204600211F2200F040F820469F2190
:101CA0001F2200F03BF8681C45B2B5F1FF3FEFDCA6
:101CB000002500BFECB2002021461F2200F02EF8C4
:101CC0007F2021461F2200F029F89F2C05F10105F5
:101CD000F0D3012604E000BF7E2C06F101061BD2E2
:101CE000F4B20127402C0BD2FDB220462946002237
:101CF00000F014F89E2D07F10107F5D3ECE700BFC3
:101D0000FDB2204629464FF6FF7200F007F89E2DDF
:101D100007F10107F4D3DFE701B0F0BD70B582B081
:101D2000144642B2002A5CD49F295AD8421C4B1C4C
:101D3000D2B2DBB2FFF7BAFC40F600452C20C4F269
:101D400001058DF80500284601210022FEF7B6FBAB
:101D5000284602210022FEF7B1FB40F2C006C2F283
:101D600000060DF10501304601224FF47A73FEF7AB
:101D7000C5FF284601210122FEF7A0FB28460121CC
:101D800000228DF80640FEF799FB28460221012229
:101D9000FEF794FB0DF10601304601224FF47A73F1
:101DA000FEF7ACFF284601210122FEF787FB200A3F
:101DB0008DF80700284601210022FEF77FFB284608
:101DC00002210122FEF77AFB0DF1070130460122C4
:101DD0004FF47A73FEF792FF284601210122FEF7A5
:101DE0006DFB02B070BD000090B0FEF781FB0024D7
:101DF0000120CDE90B44CDE9094406900A904FF447
:101E0000E0104FF4803102250F9006A8CDE90714A9
:101E1000CDE90D51FEF7E0FC20B1EFF3108072B672
:101E2000FEE700BF0F20CDE900054FF48060CDE94B
:101E30000304684602210294FEF7F0FB20B1EFF3A1
:101E4000108072B6FEE700BF002741F21800CDE90E
:101E50000877CDE90677C4F20200016840F6004435
:101E600041F0200101600168C4F2010401F0200189
:101E7000009100990168A4F5806541F004010160BA
:101E80000168002201F004010091009901684FF0FF
:101E9000020841F0080101600068022100F008001A
:101EA000009000982846FEF709FB204640F20361A7
:101EB000002240F20369FEF701FB06AE4FF0010A73
:101EC00028463146CDF81880CDE907A7CDF8248003
:101ED000FEF7E6F920463146CDE9069ACDE90878C5
:101EE000FEF7DEF94FF48070CDE906072046314653
:101EF0000897FEF7D5F940F2C00004F51051C2F280
:101F000000004FF482724FF40073082680E88600C8
:101F10000A21C0E90377C0E90573C661C0E9087703
:101F2000C0E90A71FEF758FE20B1EFF3108072B6D7
:101F3000FEE700BF40F27006C2F200064FF080419B
:101F4000304640F8081F47214FF6FF720997CDE948
:101F50000777CDE90077C0E90117C0E9032787615A
:101F6000FFF720F820B1EFF3108072B6FEE700BF54
:101F70004FF4805006F10804069006A92046FFF7AA
:101F8000D9F828B1EFF3108072B600BFFEE700BFAA
:101F900069462046FEF7C6FF20B1EFF3108072B607
:101FA000FEE700BFFFF7DCF9FFF77EFAFFF76CFEF4
:101FB00000240025C4F22504C4F22405FFF78AF9A1
:101FC000706000F03FFB0022234600F04FF9002232
:101FD0002B4600F061F800F007F950213070FFF750
:101FE00075FC4FF4FA70FEF747F9E7E72DE9F04783
:101FF00082B004460078FF2802D102B0BDE8F08725
:1020000040F6004540F2C00AC4F20105C2F2000ADF
:102010000DF106080DF1070903E000BF2078FF2845
:10202000EBD067788DF806002846012100220234A3
:10203000FEF744FA284602210022FEF73FFA5046F6
:10204000414601224FF47A73FEF758FE28460121DB
:102050000122FEF733FA002FE0D0002614F8010B1E
:1020600001218DF8070028460022FEF727FA2846AE
:1020700002210122FEF722FA5046494601224FF47E
:102080007A73FEF73BFE284601210122FEF716FA7D
:102090000136BE42E2D3C1E710B591EA030F48BF53
:1020A00083F0004300F1E881841A71EB030C05D240
:1020B000121943EB0C03001B61EB0C014FEA1154A6
:1020C000A4EB135CDFF81CE11EEA430F18BF9EEA85
:1020D000445F00F0748021EA045123EA0E0343F4C4
:1020E0008013DCF1200E32D322FA0CFE10EB0E002E
:1020F00023FA0CFE41EB0E01CCF1200E03FA0EFE8A
:1021000010EB0E00CCF1200E51F10001B1F5801F53
:1021100032D201EB045112FA0EF2BDE8104058BF62
:102120007047401C38BF5FEA420218BF7047002862
:1021300014BF20F0010041F100014FEA410313F503
:10214000001F38BF7047A1F1C04100F087B9012AD4
:1021500043EB0302ACF1200CDCF11F0E32BF4FF059
:10216000000E23FA0CF310EB030041EB0451B4EB27
:10217000115FD0D0A1EB045101F58011490801EBAA
:1021800004515FEA30000ED350F1000038BF12FA5C
:102190000EFE08D1BDE81040C9E7401C38BF5FEA19
:1021A0004202CAD1C3E7BDE810404FEA410313F52C
:1021B000001F38BF7047A1F1C04100F04FB99EEA3F
:1021C000445F08D011EA5E0FBDE8104004BF01F083
:1021D000004100207047BDE8104070B500F0F0F8F5
:1021E00064FBBE3E0000E0FF4FEA41034FEA535359
:1021F000A3F58063D3F11E03C8BFD3F1210C0CDD1E
:102200004FF0004242EAC12242EA505232FA03FC45
:102210008CEAE17CACEBE1707047102BC4BF00206E
:10222000704703F5787CBCF1FF3F04D06FF00042AB
:1022300082EA2100704770B500F0C2F8499224800C
:1022400000207047F2E7B0FA80F310FA03F10AD0E9
:10225000C3F11D0303F580634FEA03524FEA415077
:1022600002EBD12170474FF00000704770B5DFF8E6
:1022700048C11CEA111E1EBF1CEA13159EEA0C0F72
:1022800095EA0C0F00F06F8081EA03044EEAD47ED9
:10229000AE4421EA4C1123EA4C1341F4801143F47B
:1022A0008013AEF17F7EA1FB024CA0FB03653619C3
:1022B00055EB0C05A1FB034C4CF10003A0FB021CE9
:1022C00016EB0C06654153F10003094218BF46F0B6
:1022D000010613F4007F0BD14FEA03314FEA0530BA
:1022E00041EA155140EA165034036FF003020AE048
:1022F0004FEAC3214FEAC52041EA555140EA565002
:10230000F4026FF0020202EB2E4201EB025585EA65
:10231000CE710AD05FEA440C18BF24F0004450F19B
:10232000000041F1000120EAD47040F2FE7C6245D9
:1023300000D270BDA84214BF4FF080444FF040441B
:10234000002E08BF0024BEF1806FA8BFA1F1C041DC
:10235000BDE8704080F2828001F1C04101F000418F
:102360004FF0000070470CEA13159EEA0C0F18BFDF
:1023700095EA0C0F06D081EA030E4FF000000EF034
:10238000004170BD00F01CF88900013E00F007B864
:1023900000F009B84FEA430C5FEA5C5C08D081EAC0
:1023A000030100F05BB84FEA410C5FEA5C5CF6D1D8
:1023B00002494FF0000070470000FF070000F87F5F
:1023C0000EF1020E2EF0030E5EF8046B364205D4B9
:1023D000012A43EB030515F5001F12D8012841EB34
:1023E000010C1CF5001F0CD80ED14FEAD17C0CEB70
:1023F0004C0C0CF1020C15F5001F08BF4CEBD37C04
:1024000004E04FF0080C01E04FEAD37C0CEB4C05E4
:1024100026FA05F606F00706B6F1040C06D20EEB16
:10242000860CBDE870404CF0010C6047DFE80CF012
:10243000090B02024FF00041A1F500214FF000000E
:1024400070BD19461046012851EB010418BFD4F5A0
:10245000001484BF002001F0004170BD0808A0F501
:1024600000114FEA3101704710B591EA030F48BFE0
:1024700083F000433FF518AE841A71EB030C07D2CA
:102480008CF0004C121943EB0C03001B61EB0C01A8
:102490004FEA1154A4EB135CDFF8A4E11EEA430FEA
:1024A00018BF9EEA445F00F0B48021EA045123EA99
:1024B0006E035242C3EB6E0338BF5B1EDCF1200E8D
:1024C00025D322FA0CFE10EB0E0043FA0CFE41EB72
:1024D0000E01CCF1200E03FA0EFE10EB0E00CCF133
:1024E000200E51F1000129D401EB045112FA0EF231
:1024F000BDE8104058BF7047401C1CBFB2F1004FF0
:10250000704700280CBF491C20F00100704712EBF7
:10251000020E43EB030218BF4FF0010E4EEA4202D7
:10252000ACF1200CDCF11E0E56D943FA0CFE10EB78
:102530000E00CCF11E0E51F1FF31D5D50EF1010E7A
:1025400012FA0EFE404141EB010101EB445C5FEAEF
:102550005C5C10D901EB045110EBDE7038BFBEF1AA
:10256000004FBDE8104018BF704700280CBF491C41
:1025700020F00100704734D24FEAD42C24F40064D8
:1025800011F500111BD0B1FA81F20B3AA41AA41E66
:10259000D2F12003914030FA03F31943904001EB4C
:1025A000CC7101EB0451002CBDE81040A8BF70476E
:1025B00001F1C04101F000414FF000007047B0FA56
:1025C00080F310FA03F102D1BDE810407047E41A1D
:1025D000173C4805C90AE2E701EB0451BDE8104089
:1025E000704749104FEA300001EB0451BDE810403C
:1025F00002E04FF0000170474A0008BF0042F8D0E7
:10260000B2F5001F28BF704701F000414FF00000F5
:1026100070479EEA445F07D011EA5E0FBDE81040A4
:1026200004BF002100207047BDE8104070B5FFF7DF
:10263000C7FE00BF40DFF63E104683F00041704702
:102640000000E0FF43004FEAD30C4FEA3C0C43404C
:102650001FBF40070CF1605113F0FE4F70471CF094
:10266000006F03D10CF00041002070470CF00043D4
:1026700043EA507040EACC0010B500F022F800BFE9
:10268000000000924FEA0001FFF7E8BE4FF0004162
:10269000A1F500214FF0000070470000B0FA80F370
:1026A00010FA03F2C3F19D030AD0D90501EB122001
:1026B000530638BF704700F1010008BF20F0010049
:1026C00070470EF1020E2EF0030E5EF8044B24420A
:1026D00004D44FEA4102B2F17F4F11D84FEA4003D0
:1026E000B3F17F4F0CD80ED14FEAD07C0CEB4C0CE1
:1026F0000CF1020CB2F17F4F08BF4CEBD17C04E02F
:102700004FF0080C01E04FEAD17C0CEB4C0324FAAB
:1027100003F404F00704B4F1040C06D20EEB840CAD
:10272000BDE810404CF0010C6047DFE80CF00708F2
:1027300002024FF00040A0F5800010BD08464200A4
:1027400018BFD2F1807288BF00F0004010BD0000B9
:10275000000000000000010203040607080901024E
:1027600002030405060708090A0B0C0D0E0F1010D2
:10277000B103012C2DB203012C2DB306012C2D0128
:102780002C2DB40107C003A20284C101C5C2020AF4
:1027900000C3028A2AC4028AEEC5010EE010021CA0
:1027A00007123732292D29252B3900010310E1109A
:1027B000031D07062E2C292D2E2E373F0000031057
:1027C000FFFF0000E82700080000002010000000C4
:1027D00050010008F8270008100000201007000032
:1027E000700100080000000001000000100000005F
:0827F0000250000000127A0003
:04000005080000ED02
:00000001FF
