:020000040800F2
:10000000D8060020B5010008210F0008190F0008CC
:100010001D0F0008710200083D15000800000000D7
:10002000000000000000000000000000491000086F
:100030007502000800000000250F00084D100008A0
:10004000CF010008CF010008CF010008CF01000850
:10005000CF010008CF010008CF010008CF01000840
:10006000CF010008CF010008CF010008CF01000830
:10007000CF010008CF010008CF010008CF01000820
:10008000CF010008CF010008CF010008CF01000810
:10009000CF010008CF010008CF010008CF01000800
:1000A000CF010008CF010008CF010008CF010008F0
:1000B000CF010008CF010008CF010008CF010008E0
:1000C000CF010008CF010008CF010008CF010008D0
:1000D000CF010008CF010008CF010008CF010008C0
:1000E000CF010008CF010008CF01000800F002F89E
:1000F00000F050F814A696E8000CB244B344DA4578
:1001000001D100F047F8BAE80F000FA696E83000DA
:10011000A5EB040504EB0607AAEB0704A7F101070A
:100120004FEA15154FEA3414A4F10104AC4201D38F
:1001300000F030F813F0010F18BFFB1A43F0010371
:1001400000F001F8DBE71847A81E0000C81E0000F9
:10015000103A24BF78C878C1FAD8520724BF30C8F3
:1001600030C144BF04680C60704700007047000055
:100170000023002400250026103A28BF78C1FBD8B0
:10018000520728BF30C148BF0B6070471FB51FBD65
:1001900010B510BD00F031F81146FFF7F7FF01F080
:1001A000CFF900F04FF803B4FFF7F2FF03BC00F003
:1001B00057F800000948804709480047FEE7FEE776
:1001C000FEE7FEE7FEE7FEE7FEE7FEE7FEE7FEE707
:1001D00004480549054A064B7047000051100008C5
:1001E000ED000008D8000020D8060020D80200202A
:1001F000D8020020704770477047754600F02CF811
:10020000AE4605006946534620F00700854618B003
:1002100020B5FFF7DDFFBDE820404FF000064FF0AE
:1002200000074FF000084FF0000BAC46ACE8C009E7
:10023000ACE8C009ACE8C009ACE8C00921F007018E
:100240008D46704710B50446AFF300802046BDE8E8
:100250001040FFF7A8BF00000048704718000020BA
:1002600001491820ABBEFEE72600020070470000DF
:10027000FEE7000070470000B0B5044600F01EF92C
:10028000054640F20000C2F200000078611C18BF71
:10029000044400BF00F012F9401BA042FAD3B0BDE5
:1002A0002DE9F04F82B00E68002E00F0FD8041F283
:1002B0000042C4F20102042340F2004E904208BF03
:1002C00003234FF6FF7CC4F2010E009300240123A8
:1002D000C1F2100C4FF0000A4FF000094BE000BFD4
:1002E00041F20002C4F20102009F904208BF0227BF
:1002F00004F00C030F229A402BEA020207FA03F3E0
:100300004FEA9A051A4346F825204E6840F20C45FC
:10031000F202DEF8082054BF22EA080242EA08028C
:10032000C4F20105CEF808202A68B30254BF22EABD
:10033000080242EA08022A60B303DEF8042054BF30
:1003400022EA080242EA0802F303CEF80420DEF8AB
:1003500000204FF0010354BF22EA080242EA0802DB
:10036000CEF800200E680AF1010A36FA0AF204F10A
:10037000040400F0998003FA0AFB16EA0B08F1D096
:100380004E68664512DC122E56D8DFE806F0350BB3
:100390004D49555555555555555555555555554531
:1003A000510000BFD1F80C9046E000BF4FF6FF723D
:1003B000C1F2210296420FDC0022C1F211029642E4
:1003C0001AD00022C1F21202964215D00022C1F2C8
:1003D0002102964210D02FE00022C1F22202964262
:1003E0000AD00022C1F23102964205D00022C1F2A9
:1003F0003202964220D100BF8A684AB1012A14BF56
:10040000C0F814B0C0F810B04FF0080914E000BFF5
:100410004FF0040910E000BFCA6802F104090BE0C4
:100420004FF0000908E000BFCA6802F1080903E0C4
:10043000CA6802F10C0900BF02462646B8F5807F63
:1004400024BF0432203E17680F25B54027EA050572
:1004500009FA06F635431560CA79D2067FF582AFF0
:1004600041F21803C4F202031A68AEF57E7642F038
:1004700001021A601A6802F001020192019A2AF040
:10048000030256F802B040F60002C4F201029042A4
:1004900008D040F60042C4F2010290427FF420AF3F
:1004A000012725E7002723E702B0BDE8F08F000011
:1004B000002A08BF090401617047000040F2D00023
:1004C000C2F200000068704740F2000040F2D00124
:1004D000C2F20000C2F2000100780A68104408600D
:1004E0007047000080B542F20000C4F202000168CB
:1004F00041F010010160032000F07AF80F2000F0B5
:1005000005F800F027F8002080BD000070B540F22B
:100510000006C2F2000640F210013278C2F2000179
:100520004FF47A730968B3FBF2F20446B1FBF2F1BF
:10053000084600F0DBFC0F2C4FF0010508D838B955
:100540004FF0FF3021460022002500F025F87460AE
:10055000284670BD82B041F21800C4F20200016862
:10056000022241F001010160016801F001010191E5
:100570000199416841F080514160406800F080502D
:10058000009000980420C4F20100016862F31A612F
:10059000016002B07047000010B54EF60C5CCEF260
:1005A000000CDCF80030C3F3022E8EF00704042C9C
:1005B00028BF0424BEF103034FF0FF3E0EFA04F4FB
:1005C00038BF0023A14399400EFA03F39A43114325
:1005D00000F00F0200F160430901043A03F564439F
:1005E0006244002848BF02F10C03197010BD0000DE
:1005F0004EF60C51CEF200010A684FF6FF031A4086
:1006000060F30A2242F0806040F0FD70086070479D
:10061000002804BF012070472DE9F04381B042F269
:100620000008C4F202080446D8F800000D4600F0A5
:10063000070081420CD9D8F8000020F007002843B9
:10064000C8F80000D8F8000000F00700A8426CD1FC
:10065000206841F204098107C4F2020917D5410755
:1006600005D5D9F8001041F4E061C9F80010010780
:1006700005D5D9F8001041F46051C9F80010D9F837
:100680000010A26821F0F0011143C9F80010C00762
:1006900042D1D8F8000000F0070085420CD2D8F80B
:1006A000000020F007002843C8F80000D8F8000038
:1006B00000F00700A84238D12068410707D5D9F8D3
:1006C0000010E26821F4E0611143C9F8001000074E
:1006D00008D5D9F80000216920F4605040EAC10033
:1006E000C9F80000D9F8002002F00C00082841F2F7
:1006F0000020C0F27A004DD141F68E73C2F38341DF
:10070000C0F60003595CD20338D440F60010C0F2A2
:100710003D0048433EE000BF606859F8041C0228D1
:1007200008D0012826D1890306D4012001B0BDE8F4
:10073000F08300BF8901F8D5D9F8001021F003013A
:100740000843C9F80000FFF7B9FE064641F28837B2
:10075000D9F80000616800F00C00B0EB810F98D070
:10076000FFF7ACFE801BB842F2D9032001B0BDE810
:10077000F08300BF8907D8D5DEE700BFD9F8002095
:1007800041F68C73C2F34042C0F600039A5C4843C2
:10079000B0FBF2F0D9F8001041F61002C1F30311DA
:1007A000C0F60002515C40F2100220FA01F140F262
:1007B0000400C2F200000068C2F200021160FFF7FC
:1007C000A5FE002001B0BDE8F0830000002804BFB2
:1007D000012070472DE9F04182B00446007841F2D3
:1007E0000006C007C4F202060CD0706800F00C00CE
:1007F000042840F081803068800303D560680028B9
:1008000000F04681207880071BD5706810F00C0F2F
:1008100009D0706800F00C00082840F087807068EC
:10082000C00300F183803068800703D52069012868
:1008300040F02E813068616920F0F80040EAC10084
:1008400030602078000713D4207840072CD4E56965
:10085000002D00F01881706800F00C00082840F0AE
:10086000A780012D40F00481012002B0BDE8F08195
:10087000A069002800F084800020C4F242200121F9
:10088000C0F88014FFF71AFE054600BF706A8007A3
:1008900000F1B280FFF712FE401B0228F6D90320B8
:1008A00002B0BDE8F08100BFF0695FEAC00808D47B
:1008B000F06940F08050F061F06900F080500090E5
:1008C000009847F20007C4F200073868C00549D411
:1008D000386840F480703860FFF7F0FD054600BFCF
:1008E0003868C0053ED4FFF7E9FD401B6428F7D9FE
:1008F000032002B0BDE8F081706800F00C00082809
:1009000003D17068C0033FF576AF61683068002995
:1009100000F00C81B1F5A02F00F00081B1F5803F0F
:1009200040F01A8140F480301CE100BF20690028AB
:1009300040F20000C4F2422000F0888001210160F2
:10094000FFF7BCFD054600BF306880073FF572AF7A
:10095000FFF7B4FD401B0228F6D9032002B0BDE822
:10096000F08100BFE168306A002900F09D80052910
:1009700000F09280012940F0AF8040F00100B1E02A
:100980000020C4F242200021C0F88014FFF796FD39
:10099000054600BF706A80077FF556AFFFF78EFDF2
:1009A000401B0228F6D9032002B0BDE8F08100BF49
:1009B0000027C4F2422700203866FFF77FFD022D92
:1009C00005460DD13068800140F1DE80FFF776FDED
:1009D000401B02284FF00300F4D902B0BDE8F081BB
:1009E000306880014FD5FFF769FD401B02284FF0AA
:1009F0000300F5D9F1E700BF40F21000C2F2000099
:100A0000006844F6D351C1F26201A0FB0101480A1B
:100A1000019000BF00BF0198411E002801913FF4E2
:100A200013AF00BF0198411E002801913FF40CAFA5
:100A300000BF0198411E002801913FF405AF00BF9F
:100A40000198411E00280191E4D1FDE600210160DA
:100A5000FFF734FD054600BF306880077FF5F1AE33
:100A6000FFF72CFD401B02284FF00300F4D9B4E738
:100A70007068216A00F480328A4209D1616A00F408
:100A80007010884204D1002002B0BDE8F08100BFA0
:100A9000012002B0BDE8F08140F004003062306A0D
:100AA00040F001001EE000BF20F001003062306A1B
:100AB00020F004003062FFF701FD054641F288375F
:100AC000306A800720D5FFF7F9FC401BB8424FF091
:100AD0000300F5D981E700BF20F001003062306AE1
:100AE00020F004003062FFF7E9FC054641F2883748
:100AF000306A800708D4FFF7E1FC401BB842F7D901
:100B0000032002B0BDE8F081B8F1000F3FF59FAEC1
:100B1000F06920F08050F06199E600BF40F4802039
:100B20003060306840F480301CE000BF20F480303A
:100B30003060306820F480203060FFF7BFFC05464D
:100B4000306880037FF55EAEFFF7B8FC401B642879
:100B50004FF00300F4D940E720F480303060306873
:100B600020F480203060FFF7A9FC05463068800340
:100B70003FF548AEFFF7A2FC401B6428F6D90320DE
:100B800002B0BDE8F08100BF206AB0F5803F05D11A
:100B90007168A26821F40031114371607168626A62
:100BA00021F4741111430843706001203866FFF787
:100BB00085FC0446306880013FF565AFFFF77EFC99
:100BC000001B02284FF00300F4D906E770B528B1E6
:100BD000416A29B100210161142106E0012070BDA4
:100BE0004168B1F5827F02D01C21002242500026CC
:100BF000866290F8511029B980F85060054600F0DF
:100C000039F82846022180F8511090E82E0002F4AD
:100C100082720C6803F4044324F040040C601A440C
:100C200005F4006305691A4405F0020345691A4496
:100C300005F001038569C4691A4405F400731A4478
:100C400004F03803046A1A4404F08003846A1A43E7
:100C500004F400531A430A60042202EA15424A606F
:100C6000CA6922F40062CA610121466580F8511008
:100C7000304670BD70B586B040F60004C4F2010481
:100C8000006804F52051002688420596CDE90366E8
:100C9000029601D006B070BD41F21800C4F2020005
:100CA000016802AD41F480510160016801F4805196
:100CB00001910199016841F0040101600068294631
:100CC00000F0040001900198A020029002200390FF
:100CD000032005902046FFF7E3FA4020CDE9020605
:100CE000204629460496FFF7DBFA06B070BD0000E7
:100CF0002DE9F04182B01D4616460F460446FFF727
:100D0000DDFB94F8511001290ED18046002F4FF0E1
:100D1000010018BF002E03D102B0BDE8F08100BF72
:100D200094F85000012803D1022002B0BDE8F08100
:100D3000012084F850000320002184F851006165EF
:100D40002763A686E686A163A187E187A068216460
:100D5000B0F5004F2068616407D1016821F04001BF
:100D60000160016841F4804101600168490603D4D3
:100D7000016841F0400101606168731EE268B1FAE8
:100D800081F1B3FA83F349095B09B2F5006F41EAD7
:100D9000030139D131B137F8021BC1602763E08EFE
:100DA0000138E086E08E002870D0681C0BD11AE074
:100DB000216B31F8022BC2602163E08E0138E0869E
:100DC000E08E002862D0206881688907F0D4FFF7A0
:100DD00075FBA0EB0800A842F2D338E0FFF76EFBEA
:100DE000E08E002852D0206881688907F6D5216BF3
:100DF00031F8022BC2602163E08E0138E086E08E7C
:100E00000028F0D142E000BF39B139780173206B7E
:100E100001302063E08E0138E086E08EB0B3681CBC
:100E20000BD123E0216B09780173206B0130206323
:100E3000E08E0138E086E08E40B320688168890743
:100E4000F0D4FFF73BFBA0EB0800A842F3D301204E
:100E500084F85100002084F85000032002B0BDE85F
:100E6000F08100BFFFF72AFBE08E78B1206881682F
:100E70008907F7D5216B09780173206B0130206356
:100E8000E08E0138E086E08E0028EFD12046022176
:100E900001222B46CDF8008000F046F840B92046EC
:100EA000802100222B46CDF8008000F03DF828B1CB
:100EB000606D40F02000606520206065A06838B952
:100EC000002001902068C16801918068019001981C
:100ED000012084F85100002084F85000606D002843
:100EE00018BF012002B0BDE8F0810000411E0020C3
:100EF000B0EB116F1CBF012070474EF21002CEF212
:100F0000000251604EF62351CEF20001F0230B7027
:100F10000721906011607047FEE70000FEE70000C7
:100F2000FEE70000704700002DE9F04381B0089C07
:100F3000984615460E468146FFF7C0FA201A00EB88
:100F40000804FFF7BBFA40F21001C2F20001096881
:100F5000C1F3CB3161430091D9F800108A68324067
:100F6000921BB2FA82F2520995423DD0074618F11F
:100F7000010031D0FFF7A2FAC01BA04238D200987E
:100F800000990028A1F101010091D9F800108968A9
:100F900008BF044601EA0600801BB0FA80F0400951
:100FA0008542E7D120E000BF88683040801BB0FA5E
:100FB00080F04009854217D088683040801BB0FA25
:100FC00080F0400985420FD088683040801BB0FA1D
:100FD00080F04009854207D088683040801BB0FA15
:100FE00080F040098542DFD1002001B0BDE8F083E8
:100FF000D9E900014268B1F5827F22F0E002426047
:101000000BD1D9F80810B1F5004F02D0B1F5806FBF
:1010100003D1016821F040010160D9F82810B1F531
:10102000005F07D1016821F400510160016841F4BB
:1010300000510160012089F85100002089F850001A
:10104000032001B0BDE8F08370470000FFF73CBA11
:1010500070470000B0B582B040F60044C4F201040D
:1010600020464FF480610022FFF722FA1420FFF798
:1010700003F920464FF4806101220125FFF718FA99
:10108000C820FFF7F9F82046012100228DF8005012
:10109000FFF70EFA204602210022FFF709FA40F27C
:1010A0007805C2F200056946284601224FF47A739A
:1010B000FFF71EFE204601210122FFF7F9F9C820A3
:1010C000FFF7DAF811208DF80100204601210022F7
:1010D000FFF7EEF9204602210022FFF7E9F90DF1B2
:1010E0000101284601224FF47A73FFF701FE2046E2
:1010F00001210122FFF7DCF9C820FFF7BDF841F616
:101100009E70C0F6000000F02DFB36208DF8020026
:10111000204601210022FFF7CBF9204602210022C0
:10112000FFF7C6F90DF10201284601224FF47A7348
:10113000FFF7DEFD204601210122FFF7B9F9082063
:101140008DF80300204601210022FFF7B1F9204667
:1011500002210122FFF7ACF90DF10301284601221B
:101160004FF47A73FFF7C4FD204601210122FFF7F7
:101170009FF93A208DF80400204601210022FFF754
:1011800097F9204602210022FFF792F901A928468B
:1011900001224FF47A73FFF7ABFD204601210122B3
:1011A000FFF786F905208DF8050020460121002271
:1011B000FFF77EF9204602210122FFF779F90DF1B0
:1011C0000501284601224FF47A73FFF791FD20466E
:1011D00001210122FFF76CF920208DF8060020463E
:1011E00001210022FFF764F9204602210022FFF7C7
:1011F0005FF90DF10601284601224FF47A73FFF7DB
:1012000077FD204601210122FFF752F9002000213D
:101210008022A02300F084F829208DF807002046C2
:1012200001210022FFF744F9204602210022FFF7A6
:101230003FF90DF10701284601224FF47A73FFF7B9
:1012400057FD204601210122FFF732F96420FFF704
:1012500013F802B0B0BD00002DE9F04782B040F6AF
:1012600000458246C4F201052C208DF80500284671
:1012700001210022FFF71CF9284602210022FFF776
:1012800017F940F27806C2F200060DF1050130466A
:1012900001224FF47A73FFF72BFD2846012101222A
:1012A000FFF706F94FEA1A274FF4A0440DF106089C
:1012B0000DF107092846012100228DF806A0FFF74D
:1012C000F7F8284602210122FFF7F2F8304641469E
:1012D00001224FF47A73FFF70BFD2846012101220A
:1012E000FFF7E6F82846012100228DF80770FFF786
:1012F000DFF8284602210122FFF7DAF83046494696
:1013000001224FF47A73FFF7F3FC284601210122F2
:10131000FFF7CEF8013CCDD102B0BDE8F087000068
:101320002DE9F04784B040F6004407462A20C4F275
:101330000104154689468DF8060020460121002249
:1013400098464FF0000AFFF7B3F82046022100222A
:10135000FFF7AEF840F27806C2F200060DF1060182
:10136000304601224FF47A73FFF7C2FC2046012178
:101370000122FFF79DF82046012100228DF807A0E9
:10138000FFF796F8204602210122FFF791F80DF1B0
:101390000701304601224FF47A73FFF7A9FC20467B
:1013A00001210122FFF784F82046012100228DF857
:1013B0000870FFF77DF8204602210122FFF778F838
:1013C00002A9304601224FF47A73FFF791FC2046C0
:1013D00001210122FFF76CF82046012100228DF83F
:1013E00009A0FFF765F8204602210122FFF760F807
:1013F0000DF10901304601224FF47A73FFF778FCB2
:10140000204601210122FFF753F820460121002246
:101410008DF80A50FFF74CF8204602210122FFF711
:1014200047F80DF10A01304601224FF47A73FFF7B5
:101430005FFC204601210122FFF73AF82B208DF8AE
:101440000B00204601210022FFF732F8204602213E
:101450000022FFF72DF80DF10B01304601224FF469
:101460007A73FFF745FC204601210122FFF720F89F
:101470002046012100228DF80CA0FFF719F8204624
:1014800002210122FFF714F803A9304601224FF48C
:101490007A73FFF72DFC204601210122FFF708F89F
:1014A0002046012100228DF80D90FFF701F820461B
:1014B00002210122FEF7FCFF0DF10D013046012251
:1014C0004FF47A73FFF714FC204601210122FEF746
:1014D000EFFF2046012100228DF80EA0FEF7E8FF65
:1014E000204602210122FEF7E3FF0DF10E013046F6
:1014F00001224FF47A73FFF7FBFB20460121012202
:10150000FEF7D6FF2046012100228DF80F80FEF75E
:10151000CFFF204602210122FEF7CAFF0DF10F0185
:10152000304601224FF47A73FFF7E2FB2046012197
:101530000122FEF7BDFF04B0BDE8F087FEE7000022
:1015400090B0FEF7CFFF00240120CDE90B44CDE998
:1015500009440A9010200B904FF4801002250F9040
:1015600006A8CDE907440695CDE90D54FFF72EF9FD
:1015700020B1EFF3108072B6FEE700BF0F20CDE977
:10158000010501A80021CDE903440594FFF740F8C7
:1015900020B1EFF3108072B6FEE700BF002641F2E3
:1015A0001800CDE90866CDE90666C4F202000168BC
:1015B00040F6004441F0040101600168C4F20104F6
:1015C00001F00401019101990168002241F0080134
:1015D0000160006840F2034100F0080001900198AA
:1015E000204640F20345FEF763FF0120CDE90706E0
:1015F0000220099006A920460695FEF751FE40F20A
:10160000780004F51051C2F200004FF482724FF4DA
:10161000007380E846000A21C0E90366C0E905635B
:10162000C661C0E90866C0E90A61FFF7CFFA28B1D0
:10163000EFF3108072B600BFFEE700BF2046012125
:101640000122FEF735FFFFF705FD0020FFF704FE3E
:1016500040F278082C27C2F2000806AE3FA502E04F
:101660006420FEF709FE40F20800C2F200000068A4
:10167000C0F3072BBBF1000FF2D0BBF1010F6BD110
:101680000006EDD040F20800C2F2000040684FF0C2
:1016900001090090482000BF2038009900FB0BF0A2
:1016A00031F910001E214FEAD03A002000221F23FA
:1016B000FFF736FE2046012100228DF81870FEF754
:1016C000F7FE204602210022FEF7F2FE4046314698
:1016D00001224FF47A73FFF70BFB20460121012210
:1016E000FEF7E6FE2046012100228DF818A0002713
:1016F000FEF7DEFE204602210122FEF7D9FE40461B
:10170000314601224FF47A73FFF7F2FA20460121A5
:101710000122FEF7CDFE2046012100228DF818702F
:101720002C27FEF7C5FE204602210122FEF7C0FE4F
:101730004046314601224FF47A73FFF7D9FA20462A
:1017400001210122FEF7B4FE15F8090009F1010993
:10175000B9F1060FA0D183E7FEE700BF48454C4C26
:101760004F0000002DE9F04782B004460078FF28C2
:1017700002D102B0BDE8F08740F6004540F2780A99
:10178000C4F20105C2F2000A0DF106080DF10709C5
:1017900003E000BF2078FF28EBD067788DF80600C3
:1017A0002846012100220234FEF782FE284602214B
:1017B0000022FEF77DFE5046414601224FF47A7327
:1017C000FFF796FA284601210122FEF771FE002F4D
:1017D000E0D0002614F8010B01218DF807002846FF
:1017E0000022FEF765FE284602210122FEF760FE78
:1017F0005046494601224FF47A73FFF779FA28469A
:1018000001210122FEF754FE0136BE42E2D3C1E7B8
:1018100000000000000000000102030406070809A0
:1018200000000000000000000000000000000000B8
:101830000000000000100010001000100010001048
:101840000000001000000000002800280028000010
:101850000000000000000000000000000024002440
:10186000007C00240048007C004800480000000084
:101870000038005400500038001400540054003860
:1018800000100000002000540058003000280054D0
:1018900000140008000000000010002800280010BC
:1018A0000034004800480034000000000010001020
:1018B0000010000000000000000000000000000018
:1018C0000008001000200020002000200020002040
:1018D00000100008002000100008000800080008A0
:1018E0000008000800100020001000380010002838
:1018F00000000000000000000000000000000000E8
:1019000000100010007C001000100000000000001B
:1019100000000000000000000000000000000010B7
:10192000001000100000000000000000000000385F
:1019300000000000000000000000000000000000A7
:101940000000000000000010000000000008000877
:101950000010001000100010002000200000000007
:10196000003800440044005400440044004400385F
:1019700000000000001000300050001000100010A7
:101980000010001000000000003800440044000473
:10199000000800100020007C000000000038004417
:1019A0000004001800040004004400380000000097
:1019B00000080018002800280048007C00080008E3
:1019C00000000000007C004000400078000400049B
:1019D0000044003800000000003800440040007857
:1019E000004400440044003800000000007C000473
:1019F000000800100010002000200020000000005F
:101A000000380044004400380044004400440038DA
:101A1000000000000038004400440044003C000482
:101A2000004400380000000000000000001000002A
:101A30000000000000000010000000000000000096
:101A40000000001000000000000000100010001056
:101A500000000000000C003000400030000C0000CE
:101A600000000000000000000000007C0000007C7E
:101A700000000000000000000000000000600018EE
:101A8000000400180060000000000000003800445E
:101A9000000400080010001000000010000000000A
:101AA00000380044004C0054005C00400040003806
:101AB0000000000000100028002800280028007CFA
:101AC0000044004400000000007800440044007816
:101AD0000044004400440078000000000038004446
:101AE000004000400040004000440038000000007A
:101AF0000070004800440044004400440048007066
:101B000000000000007C00400040007C00400040DD
:101B10000040007C00000000007C00400040007895
:101B20000040004000400040000000000038004439
:101B300000400040005C0044004400380000000009
:101B4000004400440044007C00440044004400443D
:101B500000000000003800100010001000100010FD
:101B6000001000380000000000040004000400041D
:101B70000004000400440038000000000044004855
:101B80000050006000500048004800440000000081
:101B90000040004000400040004000400040007C09
:101BA000000000000044006C006C0054004400443D
:101BB000004400440000000000440064006400543D
:101BC0000054004C004C0044000000000038004469
:101BD0000044004400440044004400380000000079
:101BE0000078004400440044007800400040004079
:101BF0000000000000380044004400440044004459
:101C00000054003800040000007800440044004400
:101C100000780048004800440000000000380044FC
:101C200000400030000800040044003800000000BC
:101C3000007C0010001000100010001000100010B8
:101C400000000000004400440044004400440044FC
:101C50000044003800000000004400440044002814
:101C6000002800280010001000000000004400447C
:101C7000005400540054006C0028002800000000AC
:101C8000004400280028001000100028002800440C
:101C9000000000000044004400280028001000104C
:101CA0000010001000000000007C0004000800107C
:101CB000001000200040007C000000000018001010
:101CC000001000100010001000100010001000188C
:101CD0000020002000100010001000100008000874
:101CE0000000000000300010001000100010001074
:101CF00000100010001000300010002800280044E0
:101D000000000000000000000000000000000000D3
:101D1000000000000000000000000000000000FEC5
:101D20000020001000000000000000000000000083
:101D3000000000000000000000380044003C0044A7
:101D4000004C0034000000000040004000580064D7
:101D5000004400440064005800000000000000003F
:101D600000380044004000400044003800000000FB
:101D7000000400040034004C00440044004C0034D3
:101D8000000000000000000000380044007C00401B
:101D90000044003800000000000C0010007C00101F
:101DA00000100010001000100000000000000000F3
:101DB0000034004C00440044004C0034000400781F
:101DC00000400040005800640044004400440044C7
:101DD0000000000000100000007000100010001053
:101DE0000010001000000000001000000070001043
:101DF0000010001000100010001000E00040004033
:101E000000480050006000500048004400000000FE
:101E100000700010001000100010001000100010E2
:101E2000000000000000000000780054005400543E
:101E3000005400540000000000000000005800643E
:101E40000044004400440044000000000000000082
:101E50000038004400440044004400380000000002
:101E60000000000000580064004400440064005872
:101E700000400040000000000034004C00440044DA
:101E8000004C00340004000400000000005800640E
:101E90000040004000400040000000000000000042
:101EA0000038004400300008004400380000000002
:101EB00000200020007800200020002000200018D2
:101EC0000000000000000000004400440044004402
:101ED000004C0034000000000000000000440044FA
:101EE000002800280028001000000000000000006A
:101EF000005400540054006C00280028000000002A
:101F000000000000004400280010001000280044D9
:101F100000000000000000000044004400280028E9
:101F2000001000100010006000000000007C00089D
:101F3000001000200040007C00000000001800108D
:101F400000100010002000200010001000100018E9
:101F50000010001000100010001000100010001001
:101F600000100010003000100010001000080008E1
:101F7000001000100010003000000000000000748D
:101F8000004C0000000000000000000001020203FD
:101F90000405060708090A0B0C0D0E0F1010B103FB
:101FA000012C2DB203012C2DB306012C2D012C2D5B
:101FB000B40107C003A20284C101C5C2020A00C362
:101FC000028A2AC4028AEEC5010EE010021C071222
:101FD0003732292D29252B3900010310E110031D6B
:101FE00007062E2C292D2E2E373F00000310FFFF51
:101FF0001020000800000020180000005001000818
:102000002820000818000020C00600007001000809
:102010000100000010000000070A0000201800085E
:0820200000127A00000000002C
:04000005080000ED02
:00000001FF
