:020000040800F2
:10000000F0060020B5010008151600080D160008BE
:1000100011160008E103000829160008000000007E
:100020000000000000000000000000001D16000895
:10003000F10300080000000019160008211600084E
:10004000CF010008CF010008CF010008CF01000850
:10005000CF010008CF010008CF010008CF01000840
:10006000CF010008CF010008CF010008E503000818
:10007000CF010008CF010008CF010008CF01000820
:10008000CF010008CF010008CF010008CF01000810
:10009000CF010008CF010008CF010008CF01000800
:1000A000CF010008CF010008CF010008CF010008F0
:1000B000CF010008CF010008CF010008CF010008E0
:1000C000CF010008CF010008CF010008CF010008D0
:1000D000CF010008CF010008CF010008CF010008C0
:1000E000CF010008CF010008CF01000800F002F89E
:1000F00000F050F814A696E8000CB244B344DA4578
:1001000001D100F047F8BAE80F000FA696E83000DA
:10011000A5EB040504EB0607AAEB0704A7F101070A
:100120004FEA15154FEA3414A4F10104AC4201D38F
:1001300000F030F813F0010F18BFFB1A43F0010371
:1001400000F001F8DBE718479C1B0000BC1B000017
:10015000103A24BF78C878C1FAD8520724BF30C8F3
:1001600030C144BF04680C60704700007047000055
:100170000023002400250026103A28BF78C1FBD8B0
:10018000520728BF30C148BF0B6070471FB51FBD65
:1001900010B510BD00F058F81146FFF7F7FF01F059
:1001A00045FA00F076F803B4FFF7F2FF03BC00F065
:1001B0007DF800000948804709480047FEE7FEE750
:1001C000FEE7FEE7FEE7FEE7FEE7FEE7FEE7FEE707
:1001D00004480549054A064B7047000025160008EB
:1001E000ED000008F0000020F0060020F0020020E2
:1001F000F00200204FF0000200B5134694469646E8
:10020000203922BFA0E80C50A0E80C50B1F1200129
:10021000BFF4F7AF090728BFA0E80C5048BF0CC0D7
:100220005DF804EB890028BF40F8042B08BF704735
:1002300048BF20F8022B11F0804F18BF00F8012BA7
:100240007047704770477047754600F02BF8AE4610
:1002500005006946534620F00700854618B020B5D2
:10026000FFF7B6FFBDE820404FF000064FF0000753
:100270004FF000084FF0000BAC46ACE8C009ACE80A
:10028000C009ACE8C009ACE8C00921F007018D46FF
:10029000704710B50446AFF300802046BDE810401B
:1002A000FFF781BF00487047100000200149182067
:1002B000ABBEFEE726000200704700000146406A20
:1002C000826A12F0500F03D0006A026B0846104792
:1002D0000168826A42F400728262896801F46021D6
:1002E000B1F5602F01D1017B11B100F029B900BF38
:1002F000816A21F480718162816AC90448BF00F07B
:100300001FB9816A41F00101816200F019B9000052
:10031000406A816A41F040018162C16A41F0040192
:10032000C16200F03BB90000406A00F035B900003E
:10033000B0B582B004460020019021688A68D207D7
:100340004BD1886840F00100886040F20800C2F29A
:10035000000000684DF68361C4F21B31A0FB01016F
:10036000880C01900198A0B1019801380190019882
:1003700078B1019801380190019850B10198013885
:100380000190019828B10198013801900198002846
:10039000EAD100F009FD21688968C9071CD105462A
:1003A00003E000BF8068C00716D100F0FDFC411BD0
:1003B00020680329F6D38168C907F3D1A06A40F009
:1003C0001000A062E06A40F00100E062002084F8C2
:1003D0002400012002B0B0BD002002B0B0BD00007A
:1003E000FEE7000040F2A800C2F2000000F06CBA84
:1003F00070470000EFF3108072B600BFFEE7000008
:1004000070B581B00022009290F82420012A03D117
:100410000221084601B070BD4A680123062A02EB9A
:10042000820E80F8243007D8D0F800C06FF00403A3
:100430000CF134060CE000BFD0F800C00C2A87BFD6
:100440000CF12C066FF040030CF130066FF0220324
:100450000EEB03021F23346803FA02F50B6824EA4B
:10046000050503FA02F22A433260092B03EB43022B
:100470001AD9DCF80C601E3A072589689540AE430E
:10048000914023F001023143102ACCF80C1015D111
:1004900042F20041C4F201018C4517D0816A41F05B
:1004A0002001816201210AE0DCF81030072689680A
:1004B0009640B34391401943CCF81010002100221C
:1004C00080F82420084601B070BD00BF8968090289
:1004D000F4D4DCF80810102B41F40001CCF808101B
:1004E000ECD140F20801C2F2000109684DF68362C6
:1004F000C4F21B32A1FB0212910C01EB81014900F5
:10050000009100990029D9D00099013900910099F2
:100510000029D3D000990139009100990029CDD04C
:1005200000990139009100990029C7D0009901393B
:100530000091009900294FF00001E5D1BFE70000CC
:10054000B0B540F60004C4F20104006804F5E051BF
:10055000884218BFB0BD40F27005C2F2000528887D
:1005600001F098FA46F26663C4F20A034FF066326D
:1005700001F0A4FA4FF60063C4F2AF03002201F0C9
:100580002DF901F0F9F803462046022100226B60A4
:10059000BDE8B04000F002BC7047000070470000AA
:1005A000002804BF01207047B0B50446806A28B116
:1005B00021688868C0070CD115E000BF0020E06208
:1005C00084F82400204600F097F821688868C00766
:1005D00009D0886820F00100886000F0E5FB216800
:1005E0008A68D20726D1A06AC0063AD4A06A41F22E
:1005F000021290430230A062E069D4E9013240EA7D
:10060000030C531EB3FA83F35D091346B2F5807FE2
:1006100018BF2B02207D257B01284CEA45002CD1F8
:1006200035B3A56A45F02005A562E56A45F00105E8
:10063000E56222E0054602E08868C007D3D000F0FA
:10064000B3FB401B21680328F6D38868C007F3D0AA
:10065000A06A40F01000A062E06A40F00100E06291
:10066000A06AA06A40F01000A0620120B0BD00BFE7
:10067000A56903EB4533A3F5C0534D68B2F5807F00
:1006800025F4694543EA05034B608B684FF2FD751D
:10069000CFF6E17503EA050343EA00038B6001D05E
:1006A000012A07D122690023CFF6F07303EB02522F
:1006B00001E000BF0022CB6A23F470031A43CA6230
:1006C000896840F6FE62CFF61F721140814207D161
:1006D0000020E062A16A012262F30101A162B0BDC3
:1006E000A06A40F0100020F00200A062E06A40F032
:1006F0000100E0620120B0BD70B586B0044640F64E
:100700000000C4F20100216800F5E0520026914289
:100710000596CDE90366029602D006B070BD00BF13
:1007200041F21801C4F202010A6842F400720A6040
:100730000A6802F400720192019A0A6842F0040207
:100740000A60096801F004010191019901210291F7
:100750000321039102A900F019FA40F2A80508202C
:10076000C2F20005C4F202004FF48072C5E900062F
:1007700005F1100080214FF480634FF0200C80E8D9
:100780000C102846C5E90261EE6100F06DF9002801
:1007900018BFFFF72FFE25626C6206B070BD000027
:1007A000F0B581B0036842F60006C4F20106B34218
:1007B00005D042F20046C4F20106B3420AD142F229
:1007C0000443C4F201031B6813F4702F02D001200C
:1007D00001B0F0BD90F82430012B03D1022001B00C
:1007E000F0BD00BF0D460121174680F824100646D3
:1007F000FFF79EFD30B1002086F82400012001B0F3
:10080000F0BD00BF42F204403168B36AC4F2010097
:10081000324640F60176B34300F57F7603F58073E8
:10082000B142936244D0906A20F48010906248688C
:10083000400504D5906A012363F30D309062936AFA
:100840000020DB044FF0000344BFD36A23F006030B
:10085000D36282F82400106A40F2BD2340F22936A8
:10086000C0F60003C0F6000640F21134C0F60004E2
:10087000C0E90A366FF0020304630B608B6814460C
:1008800043F480738B604C312A463B4600F02EF9CE
:100890002068816801F460228168B2F5602F0CBF86
:1008A00041F4A00141F480118160002001B0F0BD4D
:1008B000036813F4702FB6D0936A43F480139362E5
:1008C00000684005B6D4BAE710B5D0E90FCE01688C
:1008D000DCF800300A6823FA0EF35C072AD512F020
:1008E000040427D00A68920603D40A6822F004029E
:1008F0000A602F22C4F20202914240F20402C4F2C2
:1009000002025BDD3023C4F20203994272D0442319
:10091000C4F20203994273D05823C4F202039942ED
:1009200040F07A804FF480231360C16A002940F0C0
:1009300098806FE09C0727D512F0020424D00A6843
:10094000920606D40A6822F00A020A60012280F8A0
:1009500021202F22C4F20202914240F20402C4F28A
:1009600002023BDD3023C4F20203994260D04423EB
:10097000C4F2020399425FD05823C4F202039942A1
:1009800060D14FF4003365E01B0743D512F0080235
:1009900008BF10BD0A6822F00E020A60012101FAA8
:1009A0000EF2CCF80420816380F82110016B002244
:1009B000002980F8202054D12CE000BF0823C4F285
:1009C0000203994222D01C23C4F20203994223D18C
:1009D00040231360C16A002943D11BE00823C4F2FD
:1009E000020399422CD01C23C4F20203994229D15C
:1009F00020232FE04FF480631360C16A89BB09E0B4
:100A00004FF480431360C16A59BB03E004231360B1
:100A1000C16A31BB10BD00BF02F168044FF08063B2
:100A2000A14208BF4FF480031360C16AC9B9F1E75E
:100A30004FF400730EE000BF4FF400530AE000BF14
:100A4000022307E002F168044FF00073A14208BFDF
:100A50004FF400131360816A0022002980F82020DF
:100A6000D8D0BDE810400847014600284FF00100EB
:100A700008BF70472DE9F043D1F800C04FF6F87376
:100A8000CBF6FD734CF6CD426344CCF6CC42A3FBCF
:100A900002236FF0030202EA93020023C4F202036E
:100AA00001F10C08C1E90F320222D1E9019E98E858
:100AB000F00181F82120DCF8002043F6F0739A431E
:100AC00042EA090242EA0E0222432A4332433A43EF
:100AD00042EA0802CCF8002000228A6381F8210053
:100AE00081F820200020BDE8F043704790F820C036
:100AF000BCF1010F04BF02207047F0B54FF0010EAA
:100B000080F820E090F821C0BCF1010F26D14FF011
:100B1000020C80F821C04FF0000CC0F838C0D0E9BA
:100B200000C4C56AC66BDCF80070102C27F0010702
:100B3000CCF80070006C0EFA00F070600846CCF83B
:100B4000043004BF10460A46CCF80800CCF80C204C
:100B5000DCF8000045B140F00E000DE0002180F807
:100B600020100220F0BD00BF20F00400CCF80000EF
:100B7000DCF8000040F00A00CCF80000DCF80000CF
:100B800040F00100CCF800000020F0BD2DE9F04F4E
:100B900082B00E68002E00F0FD8041F20042C4F2E7
:100BA0000102042340F2004E904208BF03234FF697
:100BB000FF7CC4F2010E009300240123C1F2100C4B
:100BC0004FF0000A4FF000094BE000BF41F2000275
:100BD000C4F20102009F904208BF022704F00C03F8
:100BE0000F229A402BEA020207FA03F34FEA9A0512
:100BF0001A4346F825204E6840F20C45F202DEF812
:100C0000082054BF22EA080242EA0802C4F20105A1
:100C1000CEF808202A68B30254BF22EA080242EA4A
:100C200008022A60B303DEF8042054BF22EA080257
:100C300042EA0802F303CEF80420DEF800204FF069
:100C4000010354BF22EA080242EA0802CEF800205B
:100C50000E680AF1010A36FA0AF204F1040400F0FF
:100C6000998003FA0AFB16EA0B08F1D04E68664534
:100C700012DC122E56D8DFE806F0350B4D495555DB
:100C8000555555555555555555555545510000BF68
:100C9000D1F80C9046E000BF4FF6FF72C1F221027E
:100CA00096420FDC0022C1F2110296421AD00022B5
:100CB000C1F21202964215D00022C1F221029642E0
:100CC00010D02FE00022C1F2220296420AD0002268
:100CD000C1F23102964205D00022C1F232029642A0
:100CE00020D100BF8A684AB1012A14BFC0F814B0ED
:100CF000C0F810B04FF0080914E000BF4FF004092D
:100D000010E000BFCA6802F104090BE04FF00009CF
:100D100008E000BFCA6802F1080903E0CA6802F1EE
:100D20000C0900BF02462646B8F5807F24BF043276
:100D3000203E17680F25B54027EA050509FA06F693
:100D400035431560CA79D2067FF582AF41F21803A8
:100D5000C4F202031A68AEF57E7642F001021A6010
:100D60001A6802F001020192019A2AF0030256F871
:100D700002B040F60002C4F20102904208D040F6F0
:100D80000042C4F2010290427FF420AF012725E720
:100D9000002723E702B0BDE8F08F0000002A08BF5B
:100DA000090401617047000040F2EC00C2F200004B
:100DB0000068704740F2000040F2EC01C2F200000F
:100DC000C2F2000100780A68104408607047000011
:100DD00080B542F20000C4F20200016841F0100147
:100DE0000160032000F08CF80F2000F005F800F0FF
:100DF00027F8002080BD000070B540F20006C2F266
:100E0000000640F208013278C2F200014FF47A7312
:100E10000968B3FBF2F20446B1FBF2F1084600F0B8
:100E2000DFFB0F2C4FF0010508D838B94FF0FF3029
:100E300021460022002500F037F87460284670BD76
:100E400082B041F21800C4F202000168022241F0AF
:100E500001010160016801F00101019101994168FE
:100E600041F080514160406800F08050009000984F
:100E70000420C4F20100016862F31A61016002B04B
:100E800070470000002848BF704700F01F01012292
:100E900002FA01F11C2202EAD0004EF20012CEF258
:100EA000000281507047000010B54EF60C5CCEF287
:100EB000000CDCF80030C3F3022E8EF00704042C83
:100EC00028BF0424BEF103034FF0FF3E0EFA04F4E2
:100ED00038BF0023A14399400EFA03F39A4311430C
:100EE00000F00F0200F160430901043A03F5644386
:100EF0006244002848BF02F10C03197010BD0000C5
:100F00004EF60C51CEF200010A684FF6FF031A406C
:100F100060F30A2242F0806040F0FD700860704784
:100F20002DE9F04182B00446007841F21C06C0076A
:100F3000C4F202064AD030685FEAC00808D43068BC
:100F400040F080503060306800F08050019001988F
:100F500047F20007C4F200073868C00512D43868A9
:100F600040F480703860FFF71FFF05463868C00501
:100F700008D4FFF719FF401B6428F7D9032002B0FB
:100F8000BDE8F081706810F4407012D0616801F41F
:100F9000407188420DD0706840F24042C4F2422253
:100FA000012320F4407113600023C00713607160B7
:100FB00026D17068616820F440700843B8F1000FD2
:100FC000706003D4306820F0805030602068810762
:100FD00007D556F8181CA26821F44041114346F881
:100FE000181CC00607D556F8180CE16820F48000DC
:100FF000084346F8180C002002B0BDE8F08100BF9D
:10100000FFF7D2FE054641F2883700BF70688007BF
:10101000CFD4FFF7C9FE401BB8424FF00300F5D90B
:10102000EAE70000002804BF012070472DE9F043E3
:1010300081B042F20008C4F202080446D8F8000069
:101040000D4600F0070081420CD9D8F8000020F0CE
:1010500007002843C8F80000D8F8000000F0070097
:10106000A8426CD1206841F204098107C4F2020948
:1010700017D5410705D5D9F8001041F4E061C9F84A
:101080000010010705D5D9F8001041F46051C9F8E6
:101090000010D9F80010A26821F0F0011143C9F83E
:1010A0000010C00742D1D8F8000000F007008542C8
:1010B0000CD2D8F8000020F007002843C8F8000040
:1010C000D8F8000000F00700A84238D12068410796
:1010D00007D5D9F80010E26821F4E0611143C9F89E
:1010E0000010000708D5D9F80000216920F46050ED
:1010F00040EAC100C9F80000D9F8002002F00C0055
:10110000082841F20020C0F27A004DD141F6D443C4
:10111000C2F38341C0F60003595CD20338D440F6D1
:101120000010C0F23D0048433EE000BF606859F83F
:10113000041C022808D0012826D1890306D40120E6
:1011400001B0BDE8F08300BF8901F8D5D9F80010DF
:1011500021F003010843C9F80000FFF725FE064609
:1011600041F28837D9F80000616800F00C00B0EB5C
:10117000810F98D0FFF718FE801BB842F2D90320E8
:1011800001B0BDE8F08300BF8907D8D5DEE700BF16
:10119000D9F8002041F6D243C2F34042C0F6000322
:1011A0009A5C4843B0FBF2F0D9F8001041F6C24215
:1011B000C1F30311C0F60002515C40F2080220FAAC
:1011C00001F140F20400C2F200000068C2F2000225
:1011D0001160FFF711FE002001B0BDE8F0830000B0
:1011E000002804BF012070472DE9F04182B0044679
:1011F000007841F20006C007C4F202060CD0706805
:1012000000F00C00042840F081803068800303D592
:101210006068002800F04681207880071BD5706840
:1012200010F00C0F09D0706800F00C00082840F096
:1012300087807068C00300F183803068800703D521
:101240002069012840F02E813068616920F0F800A3
:1012500040EAC10030602078000713D420784007AE
:101260002CD4E569002D00F01881706800F00C00A6
:10127000082840F0A780012D40F00481012002B031
:10128000BDE8F081A069002800F084800020C4F24D
:1012900042200121C0F88014FFF786FD054600BFFB
:1012A000706A800700F1B280FFF77EFD401B0228C4
:1012B000F6D9032002B0BDE8F08100BFF0695FEA13
:1012C000C00808D4F06940F08050F061F06900F087
:1012D00080500090009847F20007C4F20007386879
:1012E000C00549D4386840F480703860FFF75CFD71
:1012F000054600BF3868C0053ED4FFF755FD401BCA
:101300006428F7D9032002B0BDE8F081706800F0CE
:101310000C00082803D17068C0033FF576AF616800
:101320003068002900F00C81B1F5A02F00F0008199
:10133000B1F5803F40F01A8140F480301CE100BFDD
:101340002069002840F20000C4F2422000F08880AA
:1013500001210160FFF728FD054600BF30688007C6
:101360003FF572AFFFF720FD401B0228F6D903209E
:1013700002B0BDE8F08100BFE168306A002900F0EA
:101380009D80052900F09280012940F0AF8040F057
:101390000100B1E00020C4F242200021C0F8801416
:1013A000FFF702FD054600BF706A80077FF556AF64
:1013B000FFF7FAFC401B0228F6D9032002B0BDE873
:1013C000F08100BF0027C4F2422700203866FFF7F3
:1013D000EBFC022D05460DD13068800140F1DE8026
:1013E000FFF7E2FC401B02284FF00300F4D902B0E3
:1013F000BDE8F081306880014FD5FFF7D5FC401B78
:1014000002284FF00300F5D9F1E700BF40F20800D1
:10141000C2F20000006844F6D351C1F26201A0FBA1
:101420000101480A019000BF00BF0198411E002839
:1014300001913FF413AF00BF0198411E00280191B4
:101440003FF40CAF00BF0198411E002801913FF40A
:1014500005AF00BF0198411E00280191E4D1FDE6CF
:1014600000210160FFF7A0FC054600BF306880073F
:101470007FF5F1AEFFF798FC401B02284FF0030008
:10148000F4D9B4E77068216A00F480328A4209D145
:10149000616A00F47010884204D1002002B0BDE8F7
:1014A000F08100BF012002B0BDE8F08140F00400EF
:1014B0003062306A40F001001EE000BF20F0010001
:1014C0003062306A20F004003062FFF76DFC0546A0
:1014D00041F28837306A800720D5FFF765FC401B52
:1014E000B8424FF00300F5D981E700BF20F00100BA
:1014F0003062306A20F004003062FFF755FC054688
:1015000041F28837306A800708D4FFF74DFC401B52
:10151000B842F7D9032002B0BDE8F081B8F1000F5E
:101520003FF59FAEF06920F08050F06199E600BF72
:1015300040F480203060306840F480301CE000BF10
:1015400020F480303060306820F480203060FFF775
:101550002BFC0546306880037FF55EAEFFF724FC68
:10156000401B64284FF00300F4D940E720F480309A
:101570003060306820F480203060FFF715FC0546AD
:10158000306880033FF548AEFFF70EFC401B64282F
:10159000F6D9032002B0BDE8F08100BF206AB0F5A3
:1015A000803F05D17168A26821F400311143716058
:1015B0007168626A21F4741111430843706001205C
:1015C0003866FFF7F1FB0446306880013FF565AFF0
:1015D000FFF7EAFB001B02284FF00300F4D906E7EF
:1015E000411E0020B0EB116F1CBF012070474EF26E
:1015F0001002CEF2000251604EF62351CEF20001ED
:10160000F0230B700721906011607047FEE7000027
:10161000FEE70000FEE70000704700007047000092
:10162000FFF7C8BB70470000FEE7000094B0FFF76B
:10163000CFFB0AAC201D2421FEF7DCFD02200A901E
:1016400001200E90102000250F9020460495CDE932
:1016500002551195FFF7C4FD20B1EFF3108072B66B
:10166000FEE700BF0F20CDE9050505A80021CDE963
:1016700007550995FFF7D6FC20B1EFF3108072B63D
:10168000FEE700BF0225002601A801950396FFF79B
:1016900047FC28B1EFF3108072B600BFFEE700BF31
:1016A00041F21404CDE90C66CDE90A66C4F20204E5
:1016B000606840F6000840F0040060606068C4F2B2
:1016C000010800F004000590059840460221002220
:1016D000FFF764FB01270AA940460A95CDE90B767E
:1016E0000D95FFF753FA2068002140F001002060BB
:1016F0002068002200F001000A900A980B20FFF7F2
:10170000D3FB0B20FFF7BEFB40F27005C2F20005D1
:1017100008F5E051284640F8081F4FF46021077390
:101720000675C161C0E901660761FEF739FF28B19E
:10173000EFF3108072B600BFFEE700BF0020CDE9D6
:101740000A07072005F108060C900AA93046FEF7A3
:1017500057FE28B1EFF3108072B600BFFEE700BF5E
:10176000404602210122FFF719FB3046294601229B
:10177000FFF716F8FEE7000021F0004201F00043F9
:10178000A2F16052B2F5801F28BFD2F17F6C0BD955
:101790005FEA001C43EAC20242EB507018BF704778
:1017A00028BF20F001007047B2F5801FBCBF18466B
:1017B00070474FEA410C1CF5001F02D2084600F0AA
:1017C0007BBA70B500F024FA00000089FFF7F6BF7D
:1017D0004FF00040A0F58000704700002DE9C041A7
:1017E00030B4DFF8A8C23CEA111418BF3CEA131465
:1017F00000F0F0801CEA111481EA030544EAD57474
:1018000018BF1CEA131500F0CB80A4EB050404F10B
:101810007F7404F500344FF0004545EAC12145EAE4
:10182000C32341EA505143EA52534FEAC0204FEAE2
:10183000C222994208BF904200F0A0804FEA13658F
:101840000FF24816765D4FEA134506FB05F7C7F120
:10185000807706FB07F74FEAD737A7FB0368764286
:10186000A7FB06CEC8F5803838BFA8F1010807FBF2
:1018700008E6A6FB028C4FF0000EE6FB03CED8F183
:1018800000086FEA0C0C5CF1000C6FEA0E0E4EF1D2
:10189000004EA6FB0C584FF00007E6FB0E87A1FB9D
:1018A00008C6A0FB07CE16EB0E064FF0000545F16B
:1018B0000005E1FB076515F1E04E7EBFA4F580341D
:1018C0005FEA46066D4116F1800745F100054FEAD3
:1018D000172747EA05674FEA15254FEA0666A6F17E
:1018E000DE46B6F1805F20D9384605EBC47124F09E
:1018F000010C01EB0C11BCF1FE6F02D8F0BCBDE88D
:10190000008124425CBF01F5801E9EEAC47F02D4A0
:10191000F0BCBDE80081244200F13980A1F1C04152
:10192000F0BCBDE8004100F0C1B94FEAD02040EA68
:1019300041504FEAD1214FEAD22242EA43524FEAC4
:10194000D323A7FB028607FB036605FB02661EEA9C
:101950000E0F58BFA6EB0056B6EB00564FEA520EDC
:101960004EEAC37E18EB0E0E56EB530EBCD518EBA9
:1019700002085E417F1C55F10005B5E74FF4801564
:101980004FF000074FF000064FF00008ACE701F100
:10199000C04101F000414FF00000F0BCBDE8008103
:1019A0000CEA131511EA0C1F00D00CE013EA0C1F0F
:1019B00000F025804FF0000081EA030101F00041B2
:1019C000F0BCBDE80081F0BCBDE8004181EA030144
:1019D00000F06CB9F0BCBDE8004170B500F018F93A
:1019E000097EFC3E00F007B84FF0000081EA0301D9
:1019F00001F00041704781EA030100F057B9F0BCE3
:101A0000BDE8004122494FF000007047FFFDFBF99F
:101A1000F7F5F4F2F0EEEDEBE9E8E6E4E3E1E0DE21
:101A2000DDDBDAD8D7D5D4D3D1D0CFCDCCCBCAC893
:101A3000C7C6C5C4C2C1C0BFBEBDBCBBBAB9B8B7BA
:101A4000B6B5B4B3B2B1B0AFAEADACABAAA9A8A8AD
:101A5000A7A6A5A4A3A3A2A1A09F9F9E9D9C9C9B7B
:101A60009A99999897979695959493939291919026
:101A70008F8F8E8E8D8C8C8B8B8A898988888787B7
:101A80008685858484838382828181800000FF072C
:101A90000000F87FB0FA80F310FA03F10AD0C3F126
:101AA0001D0303F580634FEA03524FEA415002EBF6
:101AB000D12170474FF000007047000070B5DFF88B
:101AC00048C11CEA111E1EBF1CEA13159EEA0C0F2A
:101AD00095EA0C0F00F06F8081EA03044EEAD47E91
:101AE000AE4421EA4C1123EA4C1341F4801143F433
:101AF0008013AEF17F7EA1FB024CA0FB036536197B
:101B000055EB0C05A1FB034C4CF10003A0FB021CA0
:101B100016EB0C06654153F10003094218BF46F06D
:101B2000010613F4007F0BD14FEA03314FEA053071
:101B300041EA155140EA165034036FF003020AE0FF
:101B40004FEAC3214FEAC52041EA555140EA5650B9
:101B5000F4026FF0020202EB2E4201EB025585EA1D
:101B6000CE710AD05FEA440C18BF24F0004450F153
:101B7000000041F1000120EAD47040F2FE7C624591
:101B800000D270BDA84214BF4FF080444FF04044D3
:101B9000002E08BF0024BEF1806FA8BFA1F1C04194
:101BA000BDE8704080F2828001F1C04101F0004147
:101BB0004FF0000070470CEA13159EEA0C0F18BF97
:101BC00095EA0C0F06D081EA030E4FF000000EF0EC
:101BD000004170BD00F01CF88900013E00F007B81C
:101BE00000F009B84FEA430C5FEA5C5C08D081EA78
:101BF000030100F05BB84FEA410C5FEA5C5CF6D190
:101C000002494FF0000070470000FF070000F87F16
:101C10000EF1020E2EF0030E5EF8046B364205D470
:101C2000012A43EB030515F5001F12D8012841EBEB
:101C3000010C1CF5001F0CD80ED14FEAD17C0CEB27
:101C40004C0C0CF1020C15F5001F08BF4CEBD37CBB
:101C500004E04FF0080C01E04FEAD37C0CEB4C059C
:101C600026FA05F606F00706B6F1040C06D20EEBCE
:101C7000860CBDE870404CF0010C6047DFE80CF0CA
:101C8000090B02024FF00041A1F500214FF00000C6
:101C900070BD19461046012851EB010418BFD4F558
:101CA000001484BF002001F0004170BD0808A0F5B9
:101CB00000114FEA31017047FF2141EAD050C005C1
:101CC0007047000000000000000001020304060746
:101CD0000809010202030405060708090A0B0C0D96
:101CE0000E0F1010081D000800000020100000005A
:101CF00050010008181D000810000020E006000038
:101D00007001000800000000010000001000000049
:081D100000127A00000000003F
:04000005080000ED02
:00000001FF
