:020000040800F2
:10000000B0060020B501000801170008F916000825
:10001000FD16000875030008151700080000000011
:1000200000000000000000000000000009170008A8
:100030007903000800000000051700080D170008EC
:10004000CF010008CF010008CF010008CF01000850
:10005000CF010008CF010008CF010008CF01000840
:10006000CF010008CF010008CF010008CF01000830
:10007000CF010008CF010008CF010008CF01000820
:10008000CF010008CF010008CF010008CF01000810
:10009000CF010008CF010008CF010008CF01000800
:1000A000CF010008CF010008CF010008CF010008F0
:1000B000CF010008CF010008CF010008CF010008E0
:1000C000CF010008CF010008CF010008CF010008D0
:1000D000CF010008CF010008CF010008CF010008C0
:1000E000CF010008CF010008CF01000800F002F89E
:1000F00000F050F814A696E8000CB244B344DA4578
:1001000001D100F047F8BAE80F000FA696E83000DA
:10011000A5EB040504EB0607AAEB0704A7F101070A
:100120004FEA15154FEA3414A4F10104AC4201D38F
:1001300000F030F813F0010F18BFFB1A43F0010371
:1001400000F001F8DBE71847981C0000B81C00001D
:10015000103A24BF78C878C1FAD8520724BF30C8F3
:1001600030C144BF04680C60704700007047000055
:100170000023002400250026103A28BF78C1FBD8B0
:10018000520728BF30C148BF0B6070471FB51FBD65
:1001900010B510BD00F031F81146FFF7F7FF01F080
:1001A000BBFA00F04FF803B4FFF7F2FF03BC00F016
:1001B00057F800000948804709480047FEE7FEE776
:1001C000FEE7FEE7FEE7FEE7FEE7FEE7FEE7FEE707
:1001D00004480549054A064B7047000011170008FE
:1001E000ED000008B0000020B0060020B0020020A2
:1001F000B0020020704770477047754600F02CF839
:10020000AE4605006946534620F00700854618B003
:1002100020B5FFF7DDFFBDE820404FF000064FF0AE
:1002200000074FF000084FF0000BAC46ACE8C009E7
:10023000ACE8C009ACE8C009ACE8C00921F007018E
:100240008D46704710B50446AFF300802046BDE8E8
:100250001040FFF7A8BF00000048704710000020C2
:1002600001491820ABBEFEE72600020070470000DF
:10027000B0B5044600688168C90709D0816821F0DB
:100280000101816000F088FD21688968C90701D1FA
:100290000020B0BD054602E08068C007F8D000F03D
:1002A0007BFD411B20680329F6D38168C907F3D081
:1002B000A06A40F01000A062E06A40F00100E06235
:1002C0000120B0BDB0B582B0044600200190216885
:1002D0008A68D2074BD1886840F00100886040F2FC
:1002E0000800C2F2000000684DF68361C4F21B31C1
:1002F000A0FB0101880C01900198A0B10198013880
:100300000190019878B1019801380190019850B19D
:10031000019801380190019828B1019801380190A5
:1003200001980028EAD100F037FD21688968C907E3
:100330001CD1054603E000BF8068C00716D100F05D
:100340002BFD411B20680329F6D38168C907F3D12F
:10035000A06A40F01000A062E06A40F00100E06294
:10036000002084F82400012002B0B0BD002002B0BB
:10037000B0BD0000FEE700007047000070B582B01D
:1003800004460020019094F82400012802D10220A4
:1003900002B070BD012084F824002046FFF768FFFA
:1003A0002046FFF78FFF28B1002184F8241002B007
:1003B00070BD00BF0646A06A41F2021188430230B8
:1003C000A06240F20800C2F200000568022000F0BE
:1003D0008DFDB5FBF0F0400001900198A8B100BF81
:1003E000019801380190019878B101980138019085
:1003F000019850B1019801380190019828B10198F5
:100400000138019001980028EAD12068816841F004
:100410000801816000F0C0FC21688A6812070FD4CF
:10042000886840F00400886000F0B6FC21688968A4
:10043000490715D401216FF00302304622E000BFC6
:10044000054602E088680007EAD500F0A5FC401BDD
:1004500021680B28F6D388680007F3D50EE000BFAB
:10046000054602E080684007E4D500F095FC411B9A
:1004700020680B29F6D381684907F3D501201021A4
:100480006FF01202A36A1A401143A162002184F89E
:10049000241002B070BD000070B581B0002200923F
:1004A00090F82420012A03D10221084601B070BD32
:1004B0004A680123062A02EB820E80F8243007D80E
:1004C000D0F800C06FF004030CF134060CE000BF5C
:1004D000D0F800C00C2A87BF0CF12C066FF0400347
:1004E0000CF130066FF022030EEB03021F23346879
:1004F00003FA02F50B6824EA050503FA02F22A431F
:100500003260092B03EB43021AD9DCF80C601E3A67
:10051000072589689540AE43914023F0010231439D
:10052000102ACCF80C1015D142F20041C4F201019E
:100530008C4517D0816A41F02001816201210AE0D7
:10054000DCF81030072689689640B3439140194380
:10055000CCF810100021002280F82420084601B0B9
:1005600070BD00BF89680902F4D4DCF80810102BB4
:1005700041F40001CCF80810ECD140F20801C2F2BD
:10058000000109684DF68362C4F21B32A1FB02121E
:10059000910C01EB81014900009100990029D9D00B
:1005A00000990139009100990029D3D000990139AF
:1005B000009100990029CDD000990139009100994E
:1005C0000029C7D0009901390091009900294FF006
:1005D0000001E5D1BFE700000068C06C7047000073
:1005E000002804BF01207047B0B50446806A28B1D6
:1005F00021688868C0070CD115E000BF0020E062C8
:1006000084F82400204600F097F821688868C00725
:1006100009D0886820F00100886000F0BDFB2168E7
:100620008A68D20726D1A06AC0063AD4A06A41F2ED
:10063000021290430230A062E069D4E9013240EA3C
:10064000030C531EB3FA83F35D091346B2F5807FA2
:1006500018BF2B02207D257B01284CEA45002CD1B8
:1006600035B3A56A45F02005A562E56A45F00105A8
:10067000E56222E0054602E08868C007D3D000F0BA
:100680008BFB401B21680328F6D38868C007F3D092
:10069000A06A40F01000A062E06A40F00100E06251
:1006A000A06AA06A40F01000A0620120B0BD00BFA7
:1006B000A56903EB4533A3F5C0534D68B2F5807FC0
:1006C00025F4694543EA05034B608B684FF2FD75DD
:1006D000CFF6E17503EA050343EA00038B6001D01E
:1006E000012A07D122690023CFF6F07303EB0252EF
:1006F00001E000BF0022CB6A23F470031A43CA62F0
:10070000896840F6FE62CFF61F721140814207D120
:100710000020E062A16A012262F30101A162B0BD82
:10072000A06A40F0100020F00200A062E06A40F0F1
:100730000100E0620120B0BD80B586B0014640F600
:100740000000C4F20100096800F5E05291424FF048
:100750000001CDE90411CDE9021101D006B080BD40
:1007600041F21801C4F202010A6842F400720A6000
:100770000A6802F400720192019A0A6842F00402C7
:100780000A60096801F004010191019901210291B7
:100790000321039102A900F0F7F906B080BD000023
:1007A0002DE9F04182B000270D460446019700F084
:1007B000F3FA21688A68D20544D406464868C00521
:1007C00003D4C86A10F4700F46D040F20800C2F299
:1007D0000000076842F292480220C1F2492800F066
:1007E00085FB216844F624130A69B7FBF0F0C2F2D6
:1007F00092431A4206D1CA6844F62413C0F2920307
:100800001A425BD00A6912EA080F07D1CA6842F29D
:100810009243C0F249031A4200F0C0800A6949F2CB
:100820004923C0F224031A424FF0FC0254D1CF688E
:100830001F4208BF5422019B02FB00F7BB4250D36A
:10084000C3E000BFA06A40F02000A06284F82470DA
:10085000012002B0BDE8F0810868800700F1B58092
:10086000681C00F0A880FDB90868800770D508688A
:10087000800700F1AA800868800769D508688007AA
:1008800000F1A3800868800762D50868800700F13E
:100890009C80086880075BD508688007E4D594E0F1
:1008A0000868800700F1918000F076FA801B2168CB
:1008B000A842F5D908688007F2D449E00A6912EA2B
:1008C000080F4FF0290207D1CB6842F29247C0F2DD
:1008D00049073B4208BF1422019B02FB00F7BB42C1
:1008E00073D2681C52D05DBB0198B84230D30198D6
:1008F000013001900198B84267D20198B84227D3DD
:100900000198013001900198B8425ED20198B84236
:100910001ED30198013001900198B84255D2019838
:10092000B84215D30198013001900198B842DBD349
:100930004BE000BF0198013001900198B84235D2D8
:1009400000F02AFA801BA842F4D90198B842F1D2EB
:10095000A06A40F00400A062002084F82400032074
:1009600002B0BDE8F08100BF01980130019001980C
:10097000B8422AD20198013001900198B84224D29D
:100980000198013001900198B8421ED201980130BF
:1009900001900198B842E7D317E000BF5422019BB1
:1009A00002FB00F7BB429CD30FE000BF21680CE0C4
:1009B0000868800709D40868800706D4086880079B
:1009C0005CBF08685FEA8070F2D56FF012000860C3
:1009D000A06A40F40070A062886800F46020B0F55E
:1009E000602F01D1207B18B1002002B0BDE8F0815A
:1009F000A06A20F48070A062A06AC004F4D4A06A47
:100A000040F00100A062002002B0BDE8F0810000CB
:100A100010B5044690F82400012804BF022010BD40
:100A2000012084F824002046FFF74CFC20B1002070
:100A300084F82400012010BD42F2044C2068A16A11
:100A4000C4F2010C40F2013291430CF57F7201F5C2
:100A500080719042A16229D0A16A21F48011A16223
:100A60004168490504D5A16A012363F30D31A162F0
:100A7000A16A0023C9044FF0000144BFE16A21F0DC
:100A80000601E1626FF0020184F8243001608168A0
:100A900001F46021B1F5602F1BD1904214D0816820
:100AA00041F4A0018160002010BD00BFDCF80010FF
:100AB00011F4702FD0D0A16A41F48011A162DCF84A
:100AC00000104905CFD4D3E7DCF8001011F4702FE3
:100AD000E5D0816841F480118160002010BD0000E4
:100AE000B0B5044690F82400012804BF0220B0BD30
:100AF0000121206884F824108168C90709D0816821
:100B000021F00101816000F047F921688968C90777
:100B10000ED1214651F8280F41F2011220EA0202BB
:100B2000002042F001020A60002184F82410B0BDC8
:100B3000054602E08068C007EBD000F02DF9411BAC
:100B400020680329F6D38168C907F3D0A06A21463B
:100B500040F01000A06251F82C2F0120E1E70000C6
:100B6000B0B5044600F018F9054640F20000C2F2A4
:100B700000000078611C18BF044400BF00F00CF9AD
:100B8000401BA042FAD3B0BD2DE9F04F82B00E68F1
:100B9000002E00F0FD8041F20042C4F20102042365
:100BA00040F2004E904208BF03234FF6FF7CC4F290
:100BB000010E009300240123C1F2100C4FF0000A33
:100BC0004FF000094BE000BF41F20002C4F2010205
:100BD000009F904208BF022704F00C030F229A40A6
:100BE0002BEA020207FA03F34FEA9A051A4346F882
:100BF00025204E6840F20C45F202DEF8082054BF72
:100C000022EA080242EA0802C4F20105CEF80820EE
:100C10002A68B30254BF22EA080242EA08022A60A4
:100C2000B303DEF8042054BF22EA080242EA0802B5
:100C3000F303CEF80420DEF800204FF0010354BF88
:100C400022EA080242EA0802CEF800200E680AF101
:100C5000010A36FA0AF204F1040400F0998003FA5A
:100C60000AFB16EA0B08F1D04E68664512DC122E1C
:100C700056D8DFE806F0350B4D49555555555555B5
:100C80005555555555555545510000BFD1F80C9057
:100C900046E000BF4FF6FF72C1F2210296420FDC20
:100CA0000022C1F2110296421AD00022C1F21202B1
:100CB000964215D00022C1F22102964210D02FE0B8
:100CC0000022C1F2220296420AD00022C1F2310271
:100CD000964205D00022C1F23202964220D100BFD6
:100CE0008A684AB1012A14BFC0F814B0C0F810B025
:100CF0004FF0080914E000BF4FF0040910E000BFF6
:100D0000CA6802F104090BE04FF0000908E000BFD7
:100D1000CA6802F1080903E0CA6802F10C0900BFC1
:100D200002462646B8F5807F24BF0432203E17686D
:100D30000F25B54027EA050509FA06F63543156083
:100D4000CA79D2067FF582AF41F21803C4F20203DA
:100D50001A68AEF57E7642F001021A601A6802F057
:100D600001020192019A2AF0030256F802B040F6FD
:100D70000002C4F20102904208D040F60042C4F2E0
:100D8000010290427FF420AF012725E7002723E7E7
:100D900002B0BDE8F08F000040F2A800C2F20000EF
:100DA0000068704740F2000040F2A801C2F2000063
:100DB000C2F2000100780A68104408607047000021
:100DC00080B542F20000C4F20200016841F0100157
:100DD0000160032000F07AF80F2000F005F800F021
:100DE00027F8002080BD000070B540F20006C2F276
:100DF000000640F208013278C2F200014FF47A7323
:100E00000968B3FBF2F20446B1FBF2F1084600F0C8
:100E10005DFC0F2C4FF0010508D838B94FF0FF30BA
:100E200021460022002500F025F87460284670BD98
:100E300082B041F21800C4F202000168022241F0BF
:100E400001010160016801F001010191019941680E
:100E500041F080514160406800F08050009000985F
:100E60000420C4F20100016862F31A61016002B05B
:100E70007047000010B54EF60C5CCEF2000CDCF8AA
:100E80000030C3F3022E8EF00704042C28BF042484
:100E9000BEF103034FF0FF3E0EFA04F438BF002307
:100EA000A14399400EFA03F39A43114300F00F0255
:100EB00000F160430901043A03F5644362440028E9
:100EC00048BF02F10C03197010BD00004EF60C5122
:100ED000CEF200010A684FF6FF031A4060F30A22BF
:100EE00042F0806040F0FD7008607047012821D01A
:100EF00002280DD0102808D141F20401C4F20201E9
:100F00000A6851F8040CC00134D40020704700BFB7
:100F100080B500F0C7F941F20401C4F2020109688A
:100F20000222C1F3813102EB4101B0FBF1F0BDE8D7
:100F30008040704741F20400C4F20200C16940F2EF
:100F400002320A40B2F5817F04BF4FF4004070477F
:100F500001F44071B1F5407F18D0B1F5007F1CBF9E
:100F600000207047006A49F64041800701EAE070BE
:100F7000704700BFC2F3834015A3185CD2030DD4A1
:100F800040F60012C0F23D02504313E050F8040C4A
:100F90004FF22441800301EAE07070470A6810A311
:100FA000C2F340429A5C41F20023C0F27A03B3FBE1
:100FB000F2F250430968490248BF70474AF6AB2134
:100FC0004000CAF6AA21A0FB01014808704700BFF3
:100FD00002030405060708090A0B0C0D0E0F10107A
:100FE000010200002DE9F04182B00446007841F290
:100FF0001C06C007C4F202064AD030685FEAC00887
:1010000008D4306840F080503060306800F0805084
:101010000190019847F20007C4F200073868C00544
:1010200012D4386840F480703860FFF7B5FE05468A
:101030003868C00508D4FFF7AFFE401B6428F7D915
:10104000032002B0BDE8F081706810F4407012D047
:10105000616801F4407188420DD0706840F24042EE
:10106000C4F24222012320F4407113600023C00720
:101070001360716026D17068616820F44070084385
:10108000B8F1000F706003D4306820F080503060F9
:101090002068810707D556F8181CA26821F4404142
:1010A000114346F8181CC00607D556F8180CE1681D
:1010B00020F48000084346F8180C002002B0BDE878
:1010C000F08100BFFFF768FE054641F2883700BF98
:1010D00070688007CFD4FFF75FFE401BB8424FF027
:1010E0000300F5D9EAE70000002804BF012070479B
:1010F0002DE9F04381B042F20008C4F20208044630
:10110000D8F800000D4600F0070081420CD9D8F84D
:10111000000020F007002843C8F80000D8F80000BD
:1011200000F00700A8426CD1206841F20409810751
:10113000C4F2020917D5410705D5D9F8001041F4CA
:10114000E061C9F80010010705D5D9F8001041F495
:101150006051C9F80010D9F80010A26821F0F00120
:101160001143C9F80010C00742D1D8F8000000F0C0
:10117000070085420CD2D8F8000020F00700284371
:10118000C8F80000D8F8000000F00700A84238D1E5
:101190002068410707D5D9F80010E26821F4E06122
:1011A0001143C9F80010000708D5D9F800002169DB
:1011B00020F4605040EAC100C9F80000D9F80020CE
:1011C00002F00C00082841F20020C0F27A004DD154
:1011D00041F6D053C2F38341C0F60003595CD203F9
:1011E00038D440F60010C0F23D0048433EE000BF56
:1011F000606859F8041C022808D0012826D1890308
:1012000006D4012001B0BDE8F08300BF8901F8D504
:10121000D9F8001021F003010843C9F80000FFF7D6
:10122000BBFD064641F28837D9F80000616800F03E
:101230000C00B0EB810F98D0FFF7AEFD801BB842D9
:10124000F2D9032001B0BDE8F08300BF8907D8D5EB
:10125000DEE700BFD9F8002041F6CE53C2F340428A
:10126000C0F600039A5C4843B0FBF2F0D9F80010D6
:1012700041F6B652C1F30311C0F60002515C40F2D0
:10128000080220FA01F140F20400C2F200000068F6
:10129000C2F200021160FFF7A7FD002001B0BDE817
:1012A000F083000040F2080041F20401C2F20000A5
:1012B000C4F202010068096841F6C652C1F3C221B6
:1012C000C0F60002515CC84070470000002804BF0F
:1012D000012070472DE9F04182B00446007841F2C8
:1012E0000006C007C4F202060CD0706800F00C00C3
:1012F000042840F081803068800303D560680028AE
:1013000000F04681207880071BD5706810F00C0F24
:1013100009D0706800F00C00082840F087807068E1
:10132000C00300F183803068800703D5206901285D
:1013300040F02E813068616920F0F80040EAC10079
:1013400030602078000713D4207840072CD4E5695A
:10135000002D00F01881706800F00C00082840F0A3
:10136000A780012D40F00481012002B0BDE8F0818A
:10137000A069002800F084800020C4F242200121EE
:10138000C0F88014FFF708FD054600BF706A8007AB
:1013900000F1B280FFF700FD401B0228F6D90320C0
:1013A00002B0BDE8F08100BFF0695FEAC00808D470
:1013B000F06940F08050F061F06900F080500090DA
:1013C000009847F20007C4F200073868C00549D406
:1013D000386840F480703860FFF7DEFC054600BFD7
:1013E0003868C0053ED4FFF7D7FC401B6428F7D906
:1013F000032002B0BDE8F081706800F00C000828FE
:1014000003D17068C0033FF576AF6168306800298A
:1014100000F00C81B1F5A02F00F00081B1F5803F04
:1014200040F01A8140F480301CE100BF20690028A0
:1014300040F20000C4F2422000F0888001210160E7
:10144000FFF7AAFC054600BF306880073FF572AF82
:10145000FFF7A2FC401B0228F6D9032002B0BDE82A
:10146000F08100BFE168306A002900F09D80052905
:1014700000F09280012940F0AF8040F00100B1E01F
:101480000020C4F242200021C0F88014FFF784FC41
:10149000054600BF706A80077FF556AFFFF77CFCFA
:1014A000401B0228F6D9032002B0BDE8F08100BF3E
:1014B0000027C4F2422700203866FFF76DFC022D9A
:1014C00005460DD13068800140F1DE80FFF764FCF5
:1014D000401B02284FF00300F4D902B0BDE8F081B0
:1014E000306880014FD5FFF757FC401B02284FF0B2
:1014F0000300F5D9F1E700BF40F20800C2F2000096
:10150000006844F6D351C1F26201A0FB0101480A10
:10151000019000BF00BF0198411E002801913FF4D7
:1015200013AF00BF0198411E002801913FF40CAF9A
:1015300000BF0198411E002801913FF405AF00BF94
:101540000198411E00280191E4D1FDE600210160CF
:10155000FFF722FC054600BF306880077FF5F1AE3B
:10156000FFF71AFC401B02284FF00300F4D9B4E740
:101570007068216A00F480328A4209D1616A00F4FD
:101580007010884204D1002002B0BDE8F08100BF95
:10159000012002B0BDE8F08140F004003062306A02
:1015A00040F001001EE000BF20F001003062306A10
:1015B00020F004003062FFF7EFFB054641F2883768
:1015C000306A800720D5FFF7E7FB401BB8424FF099
:1015D0000300F5D981E700BF20F001003062306AD6
:1015E00020F004003062FFF7D7FB054641F2883750
:1015F000306A800708D4FFF7CFFB401BB842F7D909
:10160000032002B0BDE8F081B8F1000F3FF59FAEB6
:10161000F06920F08050F06199E600BF40F480202E
:101620003060306840F480301CE000BF20F480302F
:101630003060306820F480203060FFF7ADFB054655
:10164000306880037FF55EAEFFF7A6FB401B642881
:101650004FF00300F4D940E720F480303060306868
:1016600020F480203060FFF797FB05463068800348
:101670003FF548AEFFF790FB401B6428F6D90320E6
:1016800002B0BDE8F08100BF206AB0F5803F05D10F
:101690007168A26821F40031114371607168626A57
:1016A00021F4741111430843706001203866FFF77C
:1016B00073FB0446306880013FF565AFFFF76CFBB4
:1016C000001B02284FF00300F4D906E7411E00205A
:1016D000B0EB116F1CBF012070474EF21002CEF22A
:1016E000000251604EF62351CEF20001F0230B7040
:1016F0000721906011607047FEE70000FEE70000E0
:10170000FEE700007047000070470000FFF74ABB8B
:1017100070470000FEE7000094B0FFF751FB002483
:101720000120CDE90F44CDE90D440E9010200F901B
:101730004FF46010022513900AA8CDE90B440494DD
:10174000CDE902440A95CDE91154FFF7BFFD28B158
:10175000EFF3108072B600BFFEE700BF0F20CDE9A7
:1017600005054FF48060CDE9080405A8022107941F
:10177000FFF7BAFC20B1EFF3108072B6FEE700BFAE
:10178000022001904FF44040039001A8FFF72AFC8B
:1017900020B1EFF3108072B6FEE700BF41F21800EF
:1017A000C4F20200016840F2700741F004010160D8
:1017B0000068C2F2000700F004000A900A9842F2A2
:1017C0000041C4F20101384640F8081F00244FF4DC
:1017D0006021012504730475C161C0E901440561FC
:1017E000FEF7FEFE20B1EFF3108072B6FEE700BFF9
:1017F000CDE90A45072007F108040C900AA9204604
:10180000FEF74AFE20B1EFF3108072B6FEE700BF8C
:101810002046FEF7B3FD46F266654FF60066C4F259
:101820000A05C4F2AF0600BF2046FFF7F1F82046D4
:101830004FF47A71FEF7B4FF2046FEF7CDFE3880F4
:1018400080B200F0A1F94FF066322B4600F0B0F9FB
:101850000022334600F03CF800F008F8786020469B
:10186000FFF73EF96420FFF77BF9DDE721F0004246
:1018700001F00043A2F16052B2F5801F28BFD2F1FF
:101880007F6C0BD95FEA001C43EAC20242EB507046
:1018900018BF704728BF20F001007047B2F5801FC5
:1018A000BCBF184670474FEA410C1CF5001F02D21E
:1018B000084600F07BBA70B500F024FA00000089F9
:1018C000FFF7F6BF4FF00040A0F580007047000022
:1018D0002DE9C04130B4DFF8A8C23CEA111418BFAA
:1018E0003CEA131400F0F0801CEA111481EA0305AD
:1018F00044EAD57418BF1CEA131500F0CB80A4EBA2
:10190000050404F17F7404F500344FF0004545EA06
:10191000C12145EAC32341EA505143EA52534FEAF9
:10192000C0204FEAC222994208BF904200F0A08036
:101930004FEA13650FF24816765D4FEA134506FB32
:1019400005F7C7F1807706FB07F74FEAD737A7FB04
:1019500003687642A7FB06CEC8F5803838BFA8F1E9
:10196000010807FB08E6A6FB028C4FF0000EE6FB21
:1019700003CED8F100086FEA0C0C5CF1000C6FEAA2
:101980000E0E4EF1004EA6FB0C584FF00007E6FB82
:101990000E87A1FB08C6A0FB07CE16EB0E064FF084
:1019A000000545F10005E1FB076515F1E04E7EBF3E
:1019B000A4F580345FEA46066D4116F1800745F1D3
:1019C00000054FEA172747EA05674FEA15254FEA52
:1019D0000666A6F1DE46B6F1805F20D9384605EBF3
:1019E000C47124F0010C01EB0C11BCF1FE6F02D8A4
:1019F000F0BCBDE8008124425CBF01F5801E9EEA78
:101A0000C47F02D4F0BCBDE80081244200F13980DB
:101A1000A1F1C041F0BCBDE8004100F0C1B94FEAFE
:101A2000D02040EA41504FEAD1214FEAD22242EA87
:101A300043524FEAD323A7FB028607FB036605FB4D
:101A400002661EEA0E0F58BFA6EB0056B6EB005614
:101A50004FEA520E4EEAC37E18EB0E0E56EB530EB3
:101A6000BCD518EB02085E417F1C55F10005B5E7B7
:101A70004FF480154FF000074FF000064FF00008BC
:101A8000ACE701F1C04101F000414FF00000F0BCB3
:101A9000BDE800810CEA131511EA0C1F00D00CE020
:101AA00013EA0C1F00F025804FF0000081EA0301CB
:101AB00001F00041F0BCBDE80081F0BCBDE8004190
:101AC00081EA030100F06CB9F0BCBDE8004170B5DB
:101AD00000F018F9097EFC3E00F007B84FF0000056
:101AE00081EA030101F00041704781EA030100F03F
:101AF00057B9F0BCBDE8004122494FF000007047E3
:101B0000FFFDFBF9F7F5F4F2F0EEEDEBE9E8E6E4C2
:101B1000E3E1E0DEDDDBDAD8D7D5D4D3D1D0CFCD49
:101B2000CCCBCAC8C7C6C5C4C2C1C0BFBEBDBCBB82
:101B3000BAB9B8B7B6B5B4B3B2B1B0AFAEADACAB7D
:101B4000AAA9A8A8A7A6A5A4A3A3A2A1A09F9F9E57
:101B50009D9C9C9B9A999998979796959594939309
:101B6000929191908F8F8E8E8D8C8C8B8B8A8989A0
:101B70008888878786858584848383828281818023
:101B80000000FF070000F87FB0FA80F310FA03F1BD
:101B90000AD0C3F11D0303F580634FEA03524FEAF5
:101BA000415002EBD12170474FF000007047000018
:101BB00070B5DFF848C11CEA111E1EBF1CEA1315E0
:101BC0009EEA0C0F95EA0C0F00F06F8081EA030487
:101BD0004EEAD47EAE4421EA4C1123EA4C1341F480
:101BE000801143F48013AEF17F7EA1FB024CA0FB79
:101BF0000365361955EB0C05A1FB034C4CF10003B2
:101C0000A0FB021C16EB0C06654153F100030942D0
:101C100018BF46F0010613F4007F0BD14FEA0331E1
:101C20004FEA053041EA155140EA165034036FF08F
:101C300003020AE04FEAC3214FEAC52041EA5551A9
:101C400040EA5650F4026FF0020202EB2E4201EB22
:101C5000025585EACE710AD05FEA440C18BF24F021
:101C6000004450F1000041F1000120EAD47040F23C
:101C7000FE7C624500D270BDA84214BF4FF0804484
:101C80004FF04044002E08BF0024BEF1806FA8BF73
:101C9000A1F1C041BDE8704080F2828001F1C041F5
:101CA00001F000414FF0000070470CEA13159EEA66
:101CB0000C0F18BF95EA0C0F06D081EA030E4FF007
:101CC00000000EF0004170BD00F01CF88900013EDC
:101CD00000F007B800F009B84FEA430C5FEA5C5C1B
:101CE00008D081EA030100F05BB84FEA410C5FEADB
:101CF0005C5CF6D102494FF0000070470000FF071E
:101D00000000F87F0EF1020E2EF0030E5EF8046B59
:101D1000364205D4012A43EB030515F5001F12D8FE
:101D2000012841EB010C1CF5001F0CD80ED14FEA25
:101D3000D17C0CEB4C0C0CF1020C15F5001F08BF0C
:101D40004CEBD37C04E04FF0080C01E04FEAD37C6D
:101D50000CEB4C0526FA05F606F00706B6F1040C66
:101D600006D20EEB860CBDE870404CF0010C6047CB
:101D7000DFE80CF0090B02024FF00041A1F5002151
:101D80004FF0000070BD19461046012851EB0104C8
:101D900018BFD4F5001484BF002001F0004170BDCD
:101DA0000808A0F500114FEA31017047FF2141EA10
:101DB000D050C00570470000000000000000010284
:101DC00003040607080900000000010203040102E1
:101DD00002030405060708090A0B0C0D0E0F10106C
:101DE000001E000800000020100000005001000844
:101DF000101E000810000020A0060000700100085E
:101E0000010000001000000000127A000000000035
:04000005080000ED02
:00000001FF
