:020000040800F2
:10000000F0070020B5010008E9150008E115000817
:10001000E5150008BD020008FD15000800000000FD
:10002000000000000000000000000000F1150008C2
:10003000C102000800000000ED150008F5150008D9
:10004000CF010008CF010008CF010008CF01000850
:10005000CF010008CF010008CF010008CF01000840
:10006000CF010008CF010008CF010008CF01000830
:10007000CF010008CF010008CF010008CF01000820
:10008000CF010008CF010008CF010008CF01000810
:10009000CF010008CF010008CF010008CF01000800
:1000A000CF010008CF010008CF010008CF010008F0
:1000B000CF010008CF010008CF010008CF010008E0
:1000C000CF010008CF010008CF010008CF010008D0
:1000D000CF010008CF010008CF010008CF010008C0
:1000E000CF010008CF010008CF01000800F002F89E
:1000F00000F050F814A696E8000CB244B344DA4578
:1001000001D100F047F8BAE80F000FA696E83000DA
:10011000A5EB040504EB0607AAEB0704A7F101070A
:100120004FEA15154FEA3414A4F10104AC4201D38F
:1001300000F030F813F0010F18BFFB1A43F0010371
:1001400000F001F8DBE71847181800003818000025
:10015000103A24BF78C878C1FAD8520724BF30C8F3
:1001600030C144BF04680C60704700007047000055
:100170000023002400250026103A28BF78C1FBD8B0
:10018000520728BF30C148BF0B6070471FB51FBD65
:1001900010B510BD00F058F81146FFF7F7FF01F059
:1001A00037FB00F076F803B4FFF7F2FF03BC00F072
:1001B0007DF800000948804709480047FEE7FEE750
:1001C000FEE7FEE7FEE7FEE7FEE7FEE7FEE7FEE707
:1001D00004480549054A064B70470000F915000818
:1001E000ED000008F0010020F0070020F0030020DF
:1001F000F00300204FF0000200B5134694469646E7
:10020000203922BFA0E80C50A0E80C50B1F1200129
:10021000BFF4F7AF090728BFA0E80C5048BF0CC0D7
:100220005DF804EB890028BF40F8042B08BF704735
:1002300048BF20F8022B11F0804F18BF00F8012BA7
:100240007047704770477047754600F02BF8AE4610
:1002500005006946534620F00700854618B020B5D2
:10026000FFF7B6FFBDE820404FF000064FF0000753
:100270004FF000084FF0000BAC46ACE8C009ACE80A
:10028000C009ACE8C009ACE8C00921F007018D46FF
:10029000704710B50446AFF300802046BDE810401B
:1002A000FFF781BF00487047100000200149182067
:1002B000ABBEFEE72600020070470000FEE700002C
:1002C0007047000070B542F20C060446C4F2020604
:1002D00000F0B4FA3168C9071CD13068800644BF09
:1002E000202030603068C00607D43069C00704D1D0
:1002F000306840075CBF002070BD3068C00640F227
:10030000C810C2F2000021D400213268520725D45F
:100310002AE000BFC4B10546601C10D13068C00798
:10032000DBD03068C0071CBF30685FEAC070D4D033
:100330003068C007F2D1D0E73068C007CDD000F0F8
:100340007DFA401BA042F7D9032070BDC16941F07E
:100350000201C16110213268520705D5C26941F01E
:10036000040142F00102C2613269D20702D10120C8
:10037000316070BDC26942F00402C261306920F090
:10038000010030610120316070BD000080B541F294
:100390000C00C4F202004FF0FF31002241604260C5
:1003A0000160026000F096FA002080BDB0B50446FE
:1003B00000F044FA054640F20000C2F20000007866
:1003C000611C18BF044400BF00F038FA401BA04273
:1003D000FAD3B0BD2DE9F04381B040F2C815C2F2A6
:1003E00000052A7E012A03D1022001B0BDE8F08376
:1003F00004460120266828764CF250308846FFF7E4
:1004000061FF022E1CD100284ED1002042F21004C0
:10041000E861C4F20204206840F004002060206813
:1004200040F0400020604CF25030FFF74BFF216855
:1004300021F0040121600021297601B0BDE8F0839C
:1004400090BB4FF0FF30C8F80000D4E9027007EB12
:100450008020874228D242F21006C4F202064FF0F2
:10046000000900BFC5F81C90306840F00200306001
:100470007760306840F0400030604CF25030FFF759
:1004800021FF316821F00201316098B9D4E90201FD
:1004900007F5806700EB81208742E3D3002000212D
:1004A000297601B0BDE8F08301200021297601B052
:1004B000BDE8F083C8F800700021297601B0BDE8DE
:1004C000F083000042F21001C4F20201086840F01B
:1004D000800200200A6070472DE9F04381B040F2AD
:1004E000C817C2F2000716463A7E012A04D102203C
:1004F00001B0BDE8F08300BF0546012038764CF21C
:1005000050300C469946FFF7DDFE28B100213976C0
:1005100001B0BDE8F08300BF42F210080020C4F231
:100520000208F861D8F8000040F00100C8F80000A7
:100530004CF250302680FFF7C5FED8F80010002896
:1005400021F00101C8F8001018BF0046DED1012DCE
:10055000DCD00020F861D8F80000310C40F0010038
:10056000C8F800004CF250306180FFF7ABFED8F8BD
:100570000010002821F00101C8F80010C6D1E81EC3
:1005800010F1030F4FF00000C0D8F861D8F8000058
:1005900040F00100C8F800004CF25030A4F804907C
:1005A000FFF790FED8F80010002821F00101C8F8EC
:1005B0000010ABD10020F861D8F800004FEA1941D3
:1005C00040F00100C8F800004CF25030E180FFF725
:1005D00079FED8F80010002821F00101C8F80010B9
:1005E00018BF00460021397601B0BDE8F083000055
:1005F00042F20400C4F20200C16809065CBF002098
:10060000704740F22311C4F26751016048F6AB1104
:10061000CCF6EF510160C068C0B2C009704700005D
:100620002DE9F04F82B00E68002E00F0FD8041F2FF
:100630000042C4F20102042340F2004E904208BF7F
:1006400003234FF6FF7CC4F2010E00930024012324
:10065000C1F2100C4FF0000A4FF000094BE000BF50
:1006600041F20002C4F20102009F904208BF02273B
:1006700004F00C030F229A402BEA020207FA03F35C
:100680004FEA9A051A4346F825204E6840F20C4579
:10069000F202DEF8082054BF22EA080242EA080209
:1006A000C4F20105CEF808202A68B30254BF22EA3A
:1006B000080242EA08022A60B303DEF8042054BFAD
:1006C00022EA080242EA0802F303CEF80420DEF828
:1006D00000204FF0010354BF22EA080242EA080258
:1006E000CEF800200E680AF1010A36FA0AF204F187
:1006F000040400F0998003FA0AFB16EA0B08F1D013
:100700004E68664512DC122E56D8DFE806F0350B2F
:100710004D495555555555555555555555555545AD
:10072000510000BFD1F80C9046E000BF4FF6FF72B9
:10073000C1F2210296420FDC0022C1F21102964260
:100740001AD00022C1F21202964215D00022C1F244
:100750002102964210D02FE00022C1F222029642DE
:100760000AD00022C1F23102964205D00022C1F225
:100770003202964220D100BF8A684AB1012A14BFD2
:10078000C0F814B0C0F810B04FF0080914E000BF72
:100790004FF0040910E000BFCA6802F104090BE041
:1007A0004FF0000908E000BFCA6802F1080903E041
:1007B000CA6802F10C0900BF02462646B8F5807FE0
:1007C00024BF0432203E17680F25B54027EA0505EF
:1007D00009FA06F635431560CA79D2067FF582AF6D
:1007E00041F21803C4F202031A68AEF57E7642F0B5
:1007F00001021A601A6802F001020192019A2AF0BD
:10080000030256F802B040F60002C4F20102904220
:1008100008D040F60042C4F2010290427FF420AFBB
:10082000012725E7002723E702B0BDE8F08F00008D
:10083000002A08BF090401617047000040F2E81077
:10084000C2F200000068704740F2000040F2E81178
:10085000C2F20000C2F2000100780A681044086089
:100860007047000080B542F20000C4F20200016847
:1008700041F010010160032000F07CF80F2000F02F
:1008800005F800F029F8002080BD000070B540F2A6
:100890000006C2F2000640F208013278C2F20001FE
:1008A0004FF47A730968B3FBF2F20446B1FBF2F13C
:1008B000084600F0EBFB0F2C4FF0010508D838B9C3
:1008C0004FF0FF3021460022002500F027F8746029
:1008D000284670BD7047000082B041F21800C4F293
:1008E00002000168022241F001010160016801F08B
:1008F000010101910199416841F0805141604068D6
:1009000000F08050009000980420C4F201000168BB
:1009100062F31A61016002B07047000010B54EF634
:100920000C5CCEF2000CDCF80030C3F3022E8EF02B
:100930000704042C28BF0424BEF103034FF0FF3E3C
:100940000EFA04F438BF0023A14399400EFA03F3D2
:100950009A43114300F00F0200F160430901043A89
:1009600003F564436244002848BF02F10C03197088
:1009700010BD00004EF60C51CEF200010A684FF691
:10098000FF031A4060F30A2242F0806040F0FD70DD
:1009900008607047002804BF012070472DE9F0432C
:1009A00081B042F20008C4F202080446D8F8000000
:1009B0000D4600F0070081420CD9D8F8000020F065
:1009C00007002843C8F80000D8F8000000F007002E
:1009D000A8426CD1206841F204098107C4F20209DF
:1009E00017D5410705D5D9F8001041F4E061C9F8E1
:1009F0000010010705D5D9F8001041F46051C9F87D
:100A00000010D9F80010A26821F0F0011143C9F8D4
:100A10000010C00742D1D8F8000000F0070085425E
:100A20000CD2D8F8000020F007002843C8F80000D6
:100A3000D8F8000000F00700A84238D1206841072C
:100A400007D5D9F80010E26821F4E0611143C9F834
:100A50000010000708D5D9F80000216920F4605083
:100A600040EAC100C9F80000D9F8002002F00C00EB
:100A7000082841F20020C0F27A004DD141F650130F
:100A8000C2F38341C0F60003595CD20338D440F668
:100A90000010C0F23D0048433EE000BF606859F8D6
:100AA000041C022808D0012826D1890306D401207D
:100AB00001B0BDE8F08300BF8901F8D5D9F8001076
:100AC00021F003010843C9F80000FFF7B7FE06460E
:100AD00041F28837D9F80000616800F00C00B0EBF3
:100AE000810F98D0FFF7AAFE801BB842F2D90320ED
:100AF00001B0BDE8F08300BF8907D8D5DEE700BFAD
:100B0000D9F8002041F64E13C2F34042C0F600036C
:100B10009A5C4843B0FBF2F0D9F8001041F6361267
:100B2000C1F30311C0F60002515C40F2080220FA42
:100B300001F140F20400C2F200000068C2F20002BB
:100B40001160FFF7A3FE002001B0BDE8F0830000B4
:100B500070B541F20005C4F20205FFF76FFE296887
:100B6000044641F0010028602868800706D4FFF79A
:100B700065FE001B0228F7D9032070BD28681021EC
:100B800061F3C7002860FFF759FE0446002041F2D8
:100B900088366860686810F00C0F07D0FFF74EFECB
:100BA000001BB042F6D9032070BD00BF40F2040024
:100BB000C2F2000040F2080141F200220068C2F2D5
:100BC0000001C0F27A020A60FFF760FE00281CBF35
:100BD000012070BDFFF732FE2968044621F08070C5
:100BE000286000BF2868800106D5FFF727FE001B9C
:100BF0000228F7D9032070BD00206860FFF71EFEB1
:100C00002968044621F41020286000BF286880036A
:100C100008D5FFF713FE001B64284FF0030088BFC0
:100C200070BDF3E7286820F480202860686A40F0EF
:100C3000807068620020A86070BD000040F208006B
:100C400041F20401C2F20000C4F202010068096826
:100C500041F64612C1F30221C0F60002515CC840C1
:100C60007047000040F2080041F20401C2F20000A7
:100C7000C4F202010068096841F64612C1F3C221BC
:100C8000C0F60002515CC84070470000002804BF55
:100C9000012070472DE9F04182B00446007841F20E
:100CA0000006C007C4F202060CD0706800F00C0009
:100CB000042840F081803068800303D560680028F4
:100CC00000F04681207880071BD5706810F00C0F6B
:100CD00009D0706800F00C00082840F08780706828
:100CE000C00300F183803068800703D520690128A4
:100CF00040F02E813068616920F0F80040EAC100C0
:100D000030602078000713D4207840072CD4E569A0
:100D1000002D00F01881706800F00C00082840F0E9
:100D2000A780012D40F00481012002B0BDE8F081D0
:100D3000A069002800F084800020C4F24220012134
:100D4000C0F88014FFF77AFD054600BF706A80077F
:100D500000F1B280FFF772FD401B0228F6D9032094
:100D600002B0BDE8F08100BFF0695FEAC00808D4B6
:100D7000F06940F08050F061F06900F08050009020
:100D8000009847F20007C4F200073868C00549D44C
:100D9000386840F480703860FFF750FD054600BFAA
:100DA0003868C0053ED4FFF749FD401B6428F7D9D9
:100DB000032002B0BDE8F081706800F00C00082844
:100DC00003D17068C0033FF576AF616830680029D1
:100DD00000F00C81B1F5A02F00F00081B1F5803F4B
:100DE00040F01A8140F480301CE100BF20690028E7
:100DF00040F20000C4F2422000F08880012101602E
:100E0000FFF71CFD054600BF306880073FF572AF55
:100E1000FFF714FD401B0228F6D9032002B0BDE8FD
:100E2000F08100BFE168306A002900F09D8005294B
:100E300000F09280012940F0AF8040F00100B1E065
:100E40000020C4F242200021C0F88014FFF7F6FC15
:100E5000054600BF706A80077FF556AFFFF7EEFCCE
:100E6000401B0228F6D9032002B0BDE8F08100BF84
:100E70000027C4F2422700203866FFF7DFFC022D6E
:100E800005460DD13068800140F1DE80FFF7D6FCC9
:100E9000401B02284FF00300F4D902B0BDE8F081F6
:100EA000306880014FD5FFF7C9FC401B02284FF086
:100EB0000300F5D9F1E700BF40F20800C2F20000DC
:100EC000006844F6D351C1F26201A0FB0101480A57
:100ED000019000BF00BF0198411E002801913FF41E
:100EE00013AF00BF0198411E002801913FF40CAFE1
:100EF00000BF0198411E002801913FF405AF00BFDB
:100F00000198411E00280191E4D1FDE60021016015
:100F1000FFF794FC054600BF306880077FF5F1AE0F
:100F2000FFF78CFC401B02284FF00300F4D9B4E714
:100F30007068216A00F480328A4209D1616A00F443
:100F40007010884204D1002002B0BDE8F08100BFDB
:100F5000012002B0BDE8F08140F004003062306A48
:100F600040F001001EE000BF20F001003062306A56
:100F700020F004003062FFF761FC054641F288373B
:100F8000306A800720D5FFF759FC401BB8424FF06C
:100F90000300F5D981E700BF20F001003062306A1C
:100FA00020F004003062FFF749FC054641F2883723
:100FB000306A800708D4FFF741FC401BB842F7D9DC
:100FC000032002B0BDE8F081B8F1000F3FF59FAEFD
:100FD000F06920F08050F06199E600BF40F4802075
:100FE0003060306840F480301CE000BF20F4803076
:100FF0003060306820F480203060FFF71FFC054629
:10100000306880037FF55EAEFFF718FC401B642854
:101010004FF00300F4D940E720F4803030603068AE
:1010200020F480203060FFF709FC0546306880031B
:101030003FF548AEFFF702FC401B6428F6D90320B9
:1010400002B0BDE8F08100BF206AB0F5803F05D155
:101050007168A26821F40031114371607168626A9D
:1010600021F4741111430843706001203866FFF7C2
:10107000E5FB0446306880013FF565AFFFF7DEFB16
:10108000001B02284FF00300F4D906E7411E0020A0
:10109000B0EB116F1CBF012070474EF21002CEF270
:1010A000000251604EF62351CEF20001F0230B7086
:1010B0000721906011607047002804BF012070472D
:1010C00010B5044690F8410028B9002084F840008B
:1010D000204600F063F8242084F841002068D4E919
:1010E0000212C36823F40053C360036923F440531E
:1010F0001A430261D4E904231143C268194341F23F
:101100000C639A431143C1604169A26921F44071A3
:10111000114343F60002C4F201029042416103D040
:10112000FFF78CFD02E000BFFFF79CFDD4E9002330
:10113000192148439900B0FBF1F048F21F5CC5F259
:10114000EB1CA0FB0C314FF69C734909C0F6FF73F2
:1011500001FB0300322303EB0010A0FB0C03F02083
:1011600000EA531000EB0110C3F3431108449060F0
:101170001069202120F490401061506920F02A006D
:101180005061D06840F40050D0600020606484F862
:10119000411084F84210606310BD000070B586B045
:1011A00040F60004C4F20104006804F54051002632
:1011B00088420596CDE90366029601D006B070BD5F
:1011C00041F21800C4F20200016802AD41F480410E
:1011D0000160016801F4804101910199016841F0C9
:1011E000040101600068294600F0040001900198A4
:1011F0004FF40070029002200390032005902046D7
:10120000FFF70EFA4FF48060CDE90206204629462A
:101210000496FFF705FA06B070BD00002DE9F04313
:1012200081B0044690F84200202809D18846002960
:101230004FF0010018BF002A06D101B0BDE8F083CD
:10124000022001B0BDE8F083002022211D46606429
:1012500084F8421020631646FFF7F0FAA685E6856B
:10126000A1680746B1F5805F02D12069002851D0FE
:1012700046464FF00008E08D00284FD005F10109E7
:101280000CE000BF406800266FF35F2028F8020BD7
:10129000E08D0138E085E08D00283FD020680168AE
:1012A000890617D4B9F1000F22D0002D00F0CA80B2
:1012B000FFF7C4FAC01BA84200F2BC802068C168D6
:1012C000490744BF01685FEA01712FD401688906AC
:1012D000EED500BF002ED5D0A168B1F5805F15D046
:1012E00009B9216991B1406800F07F000FE000BFAB
:1012F00001688906EED4016889065CBF01685FEA6F
:101300008161E7D401688906F2D5E3E7406806F811
:10131000010BBDE70026E08D0028AFD10020202181
:1013200084F8421001B0BDE8F08300BF00210091B5
:101330000168009140680090009800BF206850E864
:10134000030F216820F4907041E80302BAB32068CB
:1013500050E8030F216820F4907041E8030272B353
:10136000206850E8030F216820F4907041E80302E0
:101370002AB3206850E8030F216820F4907041E8F8
:101380000302002ADAD11AE0206850E8050F21682C
:1013900020F0010041E80502DAB1206850E8050FAD
:1013A000216820F0010041E8050292B1206850E870
:1013B000050F216820F0010041E805024AB12068CC
:1013C00050E8050F216820F0010041E80502002ADD
:1013D000DAD1206B012824D1206850E8030F21685E
:1013E00020F0100041E80302DAB1206850E8030F52
:1013F000216820F0100041E8030292B1206850E813
:10140000030F216820F0100041E803024AB1206870
:1014100050E8030F216820F0100041E80302002A81
:10142000DAD1202084F84200002008212063616482
:1014300084F840000320202184F8421001B0BDE868
:10144000F08300BFFFF7FAF9F4E700002DE9F0435D
:1014500081B0044690F84100202809D100294FF0BE
:10146000010018BF002A07D101B0BDE8F08300BF1A
:10147000022001B0BDE8F0830020606421201D46F9
:101480000E4684F841001746FFF7D8F9A784E78491
:10149000A1688146B1F5805F02D1206900285DD046
:1014A00037460020E28C2168002A5DD06A1C24D0D7
:1014B000002D4AD0804600BF0868000608D4FFF718
:1014C000BDF9A0EB0900A8427AD82168C868F3E703
:1014D00017B117F8010B04E038F8020B00276FF37F
:1014E0005F204860E08C0138E084E08C0028E3D184
:1014F0003AE000BF0A68120609D40A68120606D448
:101500000A6812065CBF0A685FEA0262F2D51FB180
:1015100017F8012B05E000BF30F8022B00276FF30E
:101520005F224A60E28C013AE284E28C002AE4D134
:101530001AE000BF30F8022B00276FF35F224A60E9
:10154000E28C013AE284E28C72B10A68120635D567
:10155000002FEFD017F8012BF1E700BF002730462E
:10156000E28C2168002AA1D1086840061ED42DB360
:10157000681C14D1086840062AD40868400627D49D
:101580000868400624D4086840064FF00000F1D5F2
:101590000DE000BF2068C1680068400618D4FFF75E
:1015A0004DF9A0EB0900A842F4D909E00020202160
:1015B00084F8411001B0BDE8F08300BFFFF73EF9A9
:1015C0000320202184F8411001B0BDE8F08300BF62
:1015D0000020202184F8411001B0BDE8F083000014
:1015E000FEE70000FEE70000FEE700007047000095
:1015F00070470000FFF728B970470000FEE70000C1
:101600002DE9F04F83B040F2700A4CF60005C2F2AB
:10161000000A0024C0F600058AF80840AAF806402F
:1016200000F0DCF8601900F0C9F804F58064B4F546
:101630009C3FF7D140F2C40400950AF10C060AF170
:1016400006080AF1070B1F250DF10607C2F2000478
:101650000AE000BF30460DF105018DF8055001226A
:101660004FF0FF33FFF7F2FE30464146012241F2D0
:101670008833FFF7D3FD0028F6D19AF80600AA2890
:10168000F2D13046594602224FF47A73FFF7C6FD75
:101690000028DFD1BAF8070000BA4FEA1049B9F5BF
:1016A000807F05D98DF8065030463946D7E700BF10
:1016B000B9F1000F72D0304621464A464FF47A7392
:1016C000FFF7ACFD20B18DF80850304602A9C6E7FF
:1016D0003046514602224FF4FA73FFF79FFD28B1BE
:1016E0008DF8095030460DF10901B8E7BAF800004D
:1016F000B9F1040F00BA4FEA104CAAF802C005D2A3
:101700000022002119F003031CD126E009F4FE7128
:101710004A4200216FF00303E0180579A646447998
:1017200087792944C079214404333944D718744651
:1017300004370144F0D11A1D1F250DF1060719F0D9
:1017400003030AD0A05C012B014406D02244507848
:10175000022B01441CBF9078014488B28445AAF84A
:10176000041005D08DF80A5030460DF10A0176E7D5
:10177000009C40F2C4012046C2F200014A4600F03B
:101780002FF84C44009440F2C4047920C2F20004C3
:101790008DF80B0030460DF10B0160E779208DF8D4
:1017A00007000DF10701304601224FF0FF33FFF72C
:1017B0004DFE00F011F803B0BDE8F08F80B586B0A3
:1017C0000121CDE904010020029002A801A9FEF741
:1017D00001FE06B080BD0000FEF774BEFEF708BF34
:1017E000002A08BF7047F0B581B014460D46064682
:1017F000002700BFEA5BF11901200023FEF76CFE11
:101800000237A742F6D301B0BDE8F04070470000B0
:1018100090B0FFF727F806AC201D2421FEF7EAFC64
:101820000220069001200A9010200B9000252046EF
:101830000D95FFF72BFA28B1EFF3108072B600BFB9
:10184000FEE700BF0F20CDE9010501A80021CDE989
:1018500003550595FFF79EF820B1EFF3108072B69F
:10186000FEE700BF002641F21800CDE90866CDE989
:101870000666C4F20200016840F6000441F004016B
:1018800001600068C4F2010400F0040001900198B6
:101890002046012100220125FEF7CAFFCDE90655A9
:1018A00006AD02272046294608960997FEF7B8FE9E
:1018B00020462946CDE906760896FEF7B1FE40F2AD
:1018C000700004F54051C2F2000040F80C1F4FF4C4
:1018D000E1310C22C0E90116C0E90366C0E9052622
:1018E000C661FFF7E9FB28B1EFF3108072B600BFC5
:1018F000FEE700BFFFF784FE204601210122FEF72C
:1019000097FF4FF4FA60FEF751FDFFF721F9FEF75C
:101910003DFD4EF62450CEF20000016821F4E02196
:1019200001604CF60000C0F60000016881F30888F1
:1019300040688047FEE70000000000000000010250
:101940000304060708090000000001020304010265
:1019500002030405060708090A0B0C0D0E0F1010F0
:10196000801900080000002010000000500100084D
:101970009019000810000020E00700007001000826
:10198000010000001000000000127A0000000000BA
:04000005080000ED02
:00000001FF
